{
  "contractName": "Sampark",
  "abi": [
    {
      "inputs": [],
      "stateMutability": "nonpayable",
      "type": "constructor"
    },
    {
      "anonymous": false,
      "inputs": [
        {
          "indexed": true,
          "internalType": "address",
          "name": "owner",
          "type": "address"
        },
        {
          "indexed": true,
          "internalType": "address",
          "name": "approved",
          "type": "address"
        },
        {
          "indexed": true,
          "internalType": "uint256",
          "name": "tokenId",
          "type": "uint256"
        }
      ],
      "name": "Approval",
      "type": "event"
    },
    {
      "anonymous": false,
      "inputs": [
        {
          "indexed": true,
          "internalType": "address",
          "name": "owner",
          "type": "address"
        },
        {
          "indexed": true,
          "internalType": "address",
          "name": "operator",
          "type": "address"
        },
        {
          "indexed": false,
          "internalType": "bool",
          "name": "approved",
          "type": "bool"
        }
      ],
      "name": "ApprovalForAll",
      "type": "event"
    },
    {
      "anonymous": false,
      "inputs": [
        {
          "indexed": false,
          "internalType": "string",
          "name": "name",
          "type": "string"
        },
        {
          "indexed": false,
          "internalType": "string",
          "name": "skylink",
          "type": "string"
        },
        {
          "indexed": false,
          "internalType": "address",
          "name": "curOwnerAdd",
          "type": "address"
        }
      ],
      "name": "NewArt",
      "type": "event"
    },
    {
      "anonymous": false,
      "inputs": [
        {
          "indexed": true,
          "internalType": "address",
          "name": "previousOwner",
          "type": "address"
        },
        {
          "indexed": true,
          "internalType": "address",
          "name": "newOwner",
          "type": "address"
        }
      ],
      "name": "OwnershipTransferred",
      "type": "event"
    },
    {
      "anonymous": false,
      "inputs": [
        {
          "indexed": true,
          "internalType": "address",
          "name": "from",
          "type": "address"
        },
        {
          "indexed": true,
          "internalType": "address",
          "name": "to",
          "type": "address"
        },
        {
          "indexed": true,
          "internalType": "uint256",
          "name": "tokenId",
          "type": "uint256"
        }
      ],
      "name": "Transfer",
      "type": "event"
    },
    {
      "inputs": [
        {
          "internalType": "uint256",
          "name": "",
          "type": "uint256"
        }
      ],
      "name": "allartwork",
      "outputs": [
        {
          "internalType": "string",
          "name": "name",
          "type": "string"
        },
        {
          "internalType": "string",
          "name": "skylink",
          "type": "string"
        },
        {
          "internalType": "address",
          "name": "curOwnerAdd",
          "type": "address"
        }
      ],
      "stateMutability": "view",
      "type": "function"
    },
    {
      "inputs": [
        {
          "internalType": "address",
          "name": "to",
          "type": "address"
        },
        {
          "internalType": "uint256",
          "name": "tokenId",
          "type": "uint256"
        }
      ],
      "name": "approve",
      "outputs": [],
      "stateMutability": "nonpayable",
      "type": "function"
    },
    {
      "inputs": [
        {
          "internalType": "address",
          "name": "owner",
          "type": "address"
        }
      ],
      "name": "balanceOf",
      "outputs": [
        {
          "internalType": "uint256",
          "name": "",
          "type": "uint256"
        }
      ],
      "stateMutability": "view",
      "type": "function"
    },
    {
      "inputs": [],
      "name": "baseURI",
      "outputs": [
        {
          "internalType": "string",
          "name": "",
          "type": "string"
        }
      ],
      "stateMutability": "view",
      "type": "function"
    },
    {
      "inputs": [
        {
          "internalType": "uint256",
          "name": "tokenId",
          "type": "uint256"
        }
      ],
      "name": "getApproved",
      "outputs": [
        {
          "internalType": "address",
          "name": "",
          "type": "address"
        }
      ],
      "stateMutability": "view",
      "type": "function"
    },
    {
      "inputs": [
        {
          "internalType": "address",
          "name": "owner",
          "type": "address"
        },
        {
          "internalType": "address",
          "name": "operator",
          "type": "address"
        }
      ],
      "name": "isApprovedForAll",
      "outputs": [
        {
          "internalType": "bool",
          "name": "",
          "type": "bool"
        }
      ],
      "stateMutability": "view",
      "type": "function"
    },
    {
      "inputs": [],
      "name": "name",
      "outputs": [
        {
          "internalType": "string",
          "name": "",
          "type": "string"
        }
      ],
      "stateMutability": "view",
      "type": "function"
    },
    {
      "inputs": [],
      "name": "owner",
      "outputs": [
        {
          "internalType": "address",
          "name": "",
          "type": "address"
        }
      ],
      "stateMutability": "view",
      "type": "function"
    },
    {
      "inputs": [
        {
          "internalType": "uint256",
          "name": "tokenId",
          "type": "uint256"
        }
      ],
      "name": "ownerOf",
      "outputs": [
        {
          "internalType": "address",
          "name": "",
          "type": "address"
        }
      ],
      "stateMutability": "view",
      "type": "function"
    },
    {
      "inputs": [],
      "name": "renounceOwnership",
      "outputs": [],
      "stateMutability": "nonpayable",
      "type": "function"
    },
    {
      "inputs": [
        {
          "internalType": "address",
          "name": "from",
          "type": "address"
        },
        {
          "internalType": "address",
          "name": "to",
          "type": "address"
        },
        {
          "internalType": "uint256",
          "name": "tokenId",
          "type": "uint256"
        }
      ],
      "name": "safeTransferFrom",
      "outputs": [],
      "stateMutability": "nonpayable",
      "type": "function"
    },
    {
      "inputs": [
        {
          "internalType": "address",
          "name": "from",
          "type": "address"
        },
        {
          "internalType": "address",
          "name": "to",
          "type": "address"
        },
        {
          "internalType": "uint256",
          "name": "tokenId",
          "type": "uint256"
        },
        {
          "internalType": "bytes",
          "name": "_data",
          "type": "bytes"
        }
      ],
      "name": "safeTransferFrom",
      "outputs": [],
      "stateMutability": "nonpayable",
      "type": "function"
    },
    {
      "inputs": [
        {
          "internalType": "address",
          "name": "operator",
          "type": "address"
        },
        {
          "internalType": "bool",
          "name": "approved",
          "type": "bool"
        }
      ],
      "name": "setApprovalForAll",
      "outputs": [],
      "stateMutability": "nonpayable",
      "type": "function"
    },
    {
      "inputs": [
        {
          "internalType": "bytes4",
          "name": "interfaceId",
          "type": "bytes4"
        }
      ],
      "name": "supportsInterface",
      "outputs": [
        {
          "internalType": "bool",
          "name": "",
          "type": "bool"
        }
      ],
      "stateMutability": "view",
      "type": "function"
    },
    {
      "inputs": [],
      "name": "symbol",
      "outputs": [
        {
          "internalType": "string",
          "name": "",
          "type": "string"
        }
      ],
      "stateMutability": "view",
      "type": "function"
    },
    {
      "inputs": [
        {
          "internalType": "uint256",
          "name": "index",
          "type": "uint256"
        }
      ],
      "name": "tokenByIndex",
      "outputs": [
        {
          "internalType": "uint256",
          "name": "",
          "type": "uint256"
        }
      ],
      "stateMutability": "view",
      "type": "function"
    },
    {
      "inputs": [
        {
          "internalType": "address",
          "name": "owner",
          "type": "address"
        },
        {
          "internalType": "uint256",
          "name": "index",
          "type": "uint256"
        }
      ],
      "name": "tokenOfOwnerByIndex",
      "outputs": [
        {
          "internalType": "uint256",
          "name": "",
          "type": "uint256"
        }
      ],
      "stateMutability": "view",
      "type": "function"
    },
    {
      "inputs": [
        {
          "internalType": "uint256",
          "name": "tokenId",
          "type": "uint256"
        }
      ],
      "name": "tokenURI",
      "outputs": [
        {
          "internalType": "string",
          "name": "",
          "type": "string"
        }
      ],
      "stateMutability": "view",
      "type": "function"
    },
    {
      "inputs": [],
      "name": "totalSupply",
      "outputs": [
        {
          "internalType": "uint256",
          "name": "",
          "type": "uint256"
        }
      ],
      "stateMutability": "view",
      "type": "function"
    },
    {
      "inputs": [
        {
          "internalType": "address",
          "name": "from",
          "type": "address"
        },
        {
          "internalType": "address",
          "name": "to",
          "type": "address"
        },
        {
          "internalType": "uint256",
          "name": "tokenId",
          "type": "uint256"
        }
      ],
      "name": "transferFrom",
      "outputs": [],
      "stateMutability": "nonpayable",
      "type": "function"
    },
    {
      "inputs": [
        {
          "internalType": "address",
          "name": "newOwner",
          "type": "address"
        }
      ],
      "name": "transferOwnership",
      "outputs": [],
      "stateMutability": "nonpayable",
      "type": "function"
    },
    {
      "inputs": [
        {
          "internalType": "string",
          "name": "_artwork",
          "type": "string"
        },
        {
          "internalType": "string",
          "name": "Name",
          "type": "string"
        }
      ],
      "name": "CreateArt",
      "outputs": [],
      "stateMutability": "nonpayable",
      "type": "function"
    }
  ],
  "bytecode": "0x60806040523480156200001157600080fd5b506040518060400160405280600381526020017f41727400000000000000000000000000000000000000000000000000000000008152506040518060400160405280600381526020017f4152540000000000000000000000000000000000000000000000000000000000815250620000966301ffc9a760e01b620001c960201b60201c565b8160069080519060200190620000ae929190620002da565b508060079080519060200190620000c7929190620002da565b50620000e06380ac58cd60e01b620001c960201b60201c565b620000f8635b5e139f60e01b620001c960201b60201c565b6200011063780e9d6360e01b620001c960201b60201c565b5050600062000124620002d260201b60201c565b905080600a60006101000a81548173ffffffffffffffffffffffffffffffffffffffff021916908373ffffffffffffffffffffffffffffffffffffffff1602179055508073ffffffffffffffffffffffffffffffffffffffff16600073ffffffffffffffffffffffffffffffffffffffff167f8be0079c531659141344cd1fd0a4f28419497f9722a3daafe3b4186f6b6457e060405160405180910390a35062000380565b63ffffffff60e01b817bffffffffffffffffffffffffffffffffffffffffffffffffffffffff1916141562000266576040517f08c379a000000000000000000000000000000000000000000000000000000000815260040180806020018281038252601c8152602001807f4552433136353a20696e76616c696420696e746572666163652069640000000081525060200191505060405180910390fd5b6001600080837bffffffffffffffffffffffffffffffffffffffffffffffffffffffff19167bffffffffffffffffffffffffffffffffffffffffffffffffffffffff1916815260200190815260200160002060006101000a81548160ff02191690831515021790555050565b600033905090565b828054600181600116156101000203166002900490600052602060002090601f016020900481019282601f106200031d57805160ff19168380011785556200034e565b828001600101855582156200034e579182015b828111156200034d57825182559160200191906001019062000330565b5b5090506200035d919062000361565b5090565b5b808211156200037c57600081600090555060010162000362565b5090565b61335c80620003906000396000f3fe608060405234801561001057600080fd5b50600436106101425760003560e01c80636c0360eb116100b8578063960a555a1161007c578063960a555a146107b7578063a22cb465146108e7578063b88d4fde14610937578063c87b56dd14610a3c578063e985e9c514610ae3578063f2fde38b14610b5d57610142565b80636c0360eb1461061b57806370a082311461069e578063715018a6146106f65780638da5cb5b1461070057806395d89b411461073457610142565b806323b872dd1161010a57806323b872dd146102f15780632ba79adb1461035f5780632f745c59146104b157806342842e0e146105135780634f6ccce7146105815780636352211e146105c357610142565b806301ffc9a71461014757806306fdde03146101aa578063081812fc1461022d578063095ea7b31461028557806318160ddd146102d3575b600080fd5b6101926004803603602081101561015d57600080fd5b8101908080357bffffffffffffffffffffffffffffffffffffffffffffffffffffffff19169060200190929190505050610ba1565b60405180821515815260200191505060405180910390f35b6101b2610c08565b6040518080602001828103825283818151815260200191508051906020019080838360005b838110156101f25780820151818401526020810190506101d7565b50505050905090810190601f16801561021f5780820380516001836020036101000a031916815260200191505b509250505060405180910390f35b6102596004803603602081101561024357600080fd5b8101908080359060200190929190505050610caa565b604051808273ffffffffffffffffffffffffffffffffffffffff16815260200191505060405180910390f35b6102d16004803603604081101561029b57600080fd5b81019080803573ffffffffffffffffffffffffffffffffffffffff16906020019092919080359060200190929190505050610d45565b005b6102db610e89565b6040518082815260200191505060405180910390f35b61035d6004803603606081101561030757600080fd5b81019080803573ffffffffffffffffffffffffffffffffffffffff169060200190929190803573ffffffffffffffffffffffffffffffffffffffff16906020019092919080359060200190929190505050610e9a565b005b6104af6004803603604081101561037557600080fd5b810190808035906020019064010000000081111561039257600080fd5b8201836020820111156103a457600080fd5b803590602001918460018302840111640100000000831117156103c657600080fd5b91908080601f016020809104026020016040519081016040528093929190818152602001838380828437600081840152601f19601f8201169050808301925050505050505091929192908035906020019064010000000081111561042957600080fd5b82018360208201111561043b57600080fd5b8035906020019184600183028401116401000000008311171561045d57600080fd5b91908080601f016020809104026020016040519081016040528093929190818152602001838380828437600081840152601f19601f820116905080830192505050505050509192919290505050610f10565b005b6104fd600480360360408110156104c757600080fd5b81019080803573ffffffffffffffffffffffffffffffffffffffff1690602001909291908035906020019092919050505061127a565b6040518082815260200191505060405180910390f35b61057f6004803603606081101561052957600080fd5b81019080803573ffffffffffffffffffffffffffffffffffffffff169060200190929190803573ffffffffffffffffffffffffffffffffffffffff169060200190929190803590602001909291905050506112d5565b005b6105ad6004803603602081101561059757600080fd5b81019080803590602001909291905050506112f5565b6040518082815260200191505060405180910390f35b6105ef600480360360208110156105d957600080fd5b8101908080359060200190929190505050611318565b604051808273ffffffffffffffffffffffffffffffffffffffff16815260200191505060405180910390f35b61062361134f565b6040518080602001828103825283818151815260200191508051906020019080838360005b83811015610663578082015181840152602081019050610648565b50505050905090810190601f1680156106905780820380516001836020036101000a031916815260200191505b509250505060405180910390f35b6106e0600480360360208110156106b457600080fd5b81019080803573ffffffffffffffffffffffffffffffffffffffff1690602001909291905050506113f1565b6040518082815260200191505060405180910390f35b6106fe6114c6565b005b610708611651565b604051808273ffffffffffffffffffffffffffffffffffffffff16815260200191505060405180910390f35b61073c61167b565b6040518080602001828103825283818151815260200191508051906020019080838360005b8381101561077c578082015181840152602081019050610761565b50505050905090810190601f1680156107a95780820380516001836020036101000a031916815260200191505b509250505060405180910390f35b6107e3600480360360208110156107cd57600080fd5b810190808035906020019092919050505061171d565b6040518080602001806020018473ffffffffffffffffffffffffffffffffffffffff168152602001838103835286818151815260200191508051906020019080838360005b83811015610843578082015181840152602081019050610828565b50505050905090810190601f1680156108705780820380516001836020036101000a031916815260200191505b50838103825285818151815260200191508051906020019080838360005b838110156108a957808201518184015260208101905061088e565b50505050905090810190601f1680156108d65780820380516001836020036101000a031916815260200191505b509550505050505060405180910390f35b610935600480360360408110156108fd57600080fd5b81019080803573ffffffffffffffffffffffffffffffffffffffff1690602001909291908035151590602001909291905050506118a4565b005b610a3a6004803603608081101561094d57600080fd5b81019080803573ffffffffffffffffffffffffffffffffffffffff169060200190929190803573ffffffffffffffffffffffffffffffffffffffff16906020019092919080359060200190929190803590602001906401000000008111156109b457600080fd5b8201836020820111156109c657600080fd5b803590602001918460018302840111640100000000831117156109e857600080fd5b91908080601f016020809104026020016040519081016040528093929190818152602001838380828437600081840152601f19601f820116905080830192505050505050509192919290505050611a5a565b005b610a6860048036036020811015610a5257600080fd5b8101908080359060200190929190505050611ad2565b6040518080602001828103825283818151815260200191508051906020019080838360005b83811015610aa8578082015181840152602081019050610a8d565b50505050905090810190601f168015610ad55780820380516001836020036101000a031916815260200191505b509250505060405180910390f35b610b4560048036036040811015610af957600080fd5b81019080803573ffffffffffffffffffffffffffffffffffffffff169060200190929190803573ffffffffffffffffffffffffffffffffffffffff169060200190929190505050611dbb565b60405180821515815260200191505060405180910390f35b610b9f60048036036020811015610b7357600080fd5b81019080803573ffffffffffffffffffffffffffffffffffffffff169060200190929190505050611e4f565b005b6000806000837bffffffffffffffffffffffffffffffffffffffffffffffffffffffff19167bffffffffffffffffffffffffffffffffffffffffffffffffffffffff1916815260200190815260200160002060009054906101000a900460ff169050919050565b606060068054600181600116156101000203166002900480601f016020809104026020016040519081016040528092919081815260200182805460018160011615610100020316600290048015610ca05780601f10610c7557610100808354040283529160200191610ca0565b820191906000526020600020905b815481529060010190602001808311610c8357829003601f168201915b5050505050905090565b6000610cb58261205f565b610d0a576040517f08c379a000000000000000000000000000000000000000000000000000000000815260040180806020018281038252602c815260200180613251602c913960400191505060405180910390fd5b6004600083815260200190815260200160002060009054906101000a900473ffffffffffffffffffffffffffffffffffffffff169050919050565b6000610d5082611318565b90508073ffffffffffffffffffffffffffffffffffffffff168373ffffffffffffffffffffffffffffffffffffffff161415610dd7576040517f08c379a00000000000000000000000000000000000000000000000000000000081526004018080602001828103825260218152602001806132d56021913960400191505060405180910390fd5b8073ffffffffffffffffffffffffffffffffffffffff16610df661207c565b73ffffffffffffffffffffffffffffffffffffffff161480610e255750610e2481610e1f61207c565b611dbb565b5b610e7a576040517f08c379a00000000000000000000000000000000000000000000000000000000081526004018080602001828103825260388152602001806131a46038913960400191505060405180910390fd5b610e848383612084565b505050565b6000610e95600261213d565b905090565b610eab610ea561207c565b82612152565b610f00576040517f08c379a00000000000000000000000000000000000000000000000000000000081526004018080602001828103825260318152602001806132f66031913960400191505060405180910390fd5b610f0b838383612246565b505050565b600c826040518082805190602001908083835b60208310610f465780518252602082019150602081019050602083039250610f23565b6001836020036101000a038019825116818451168082178552505050505050905001915050908152602001604051809103902060009054906101000a900460ff1615610f9157600080fd5b600b60405180606001604052808381526020018481526020013373ffffffffffffffffffffffffffffffffffffffff168152509080600181540180825580915050600190039060005260206000209060030201600090919091909150600082015181600001908051906020019061100992919061303c565b50602082015181600101908051906020019061102692919061303c565b5060408201518160020160006101000a81548173ffffffffffffffffffffffffffffffffffffffff021916908373ffffffffffffffffffffffffffffffffffffffff16021790555050506000600b80549050905033600d600083815260200190815260200160002060006101000a81548173ffffffffffffffffffffffffffffffffffffffff021916908373ffffffffffffffffffffffffffffffffffffffff1602179055507f3f2f1cf13bb027bbb2d5d1febc22cdc3d3757d806526a8aa520f9d73e9b22b048284336040518080602001806020018473ffffffffffffffffffffffffffffffffffffffff168152602001838103835286818151815260200191508051906020019080838360005b83811015611150578082015181840152602081019050611135565b50505050905090810190601f16801561117d5780820380516001836020036101000a031916815260200191505b50838103825285818151815260200191508051906020019080838360005b838110156111b657808201518184015260208101905061119b565b50505050905090810190601f1680156111e35780820380516001836020036101000a031916815260200191505b509550505050505060405180910390a16001600c846040518082805190602001908083835b6020831061122b5780518252602082019150602081019050602083039250611208565b6001836020036101000a038019825116818451168082178552505050505050905001915050908152602001604051809103902060006101000a81548160ff021916908315150217905550505050565b60006112cd82600160008673ffffffffffffffffffffffffffffffffffffffff1673ffffffffffffffffffffffffffffffffffffffff16815260200190815260200160002061248990919063ffffffff16565b905092915050565b6112f083838360405180602001604052806000815250611a5a565b505050565b60008061130c8360026124a390919063ffffffff16565b50905080915050919050565b6000611348826040518060600160405280602981526020016132066029913960026124cf9092919063ffffffff16565b9050919050565b606060098054600181600116156101000203166002900480601f0160208091040260200160405190810160405280929190818152602001828054600181600116156101000203166002900480156113e75780601f106113bc576101008083540402835291602001916113e7565b820191906000526020600020905b8154815290600101906020018083116113ca57829003601f168201915b5050505050905090565b60008073ffffffffffffffffffffffffffffffffffffffff168273ffffffffffffffffffffffffffffffffffffffff161415611478576040517f08c379a000000000000000000000000000000000000000000000000000000000815260040180806020018281038252602a8152602001806131dc602a913960400191505060405180910390fd5b6114bf600160008473ffffffffffffffffffffffffffffffffffffffff1673ffffffffffffffffffffffffffffffffffffffff1681526020019081526020016000206124ee565b9050919050565b6114ce61207c565b73ffffffffffffffffffffffffffffffffffffffff16600a60009054906101000a900473ffffffffffffffffffffffffffffffffffffffff1673ffffffffffffffffffffffffffffffffffffffff1614611590576040517f08c379a00000000000000000000000000000000000000000000000000000000081526004018080602001828103825260208152602001807f4f776e61626c653a2063616c6c6572206973206e6f7420746865206f776e657281525060200191505060405180910390fd5b600073ffffffffffffffffffffffffffffffffffffffff16600a60009054906101000a900473ffffffffffffffffffffffffffffffffffffffff1673ffffffffffffffffffffffffffffffffffffffff167f8be0079c531659141344cd1fd0a4f28419497f9722a3daafe3b4186f6b6457e060405160405180910390a36000600a60006101000a81548173ffffffffffffffffffffffffffffffffffffffff021916908373ffffffffffffffffffffffffffffffffffffffff160217905550565b6000600a60009054906101000a900473ffffffffffffffffffffffffffffffffffffffff16905090565b606060078054600181600116156101000203166002900480601f0160208091040260200160405190810160405280929190818152602001828054600181600116156101000203166002900480156117135780601f106116e857610100808354040283529160200191611713565b820191906000526020600020905b8154815290600101906020018083116116f657829003601f168201915b5050505050905090565b600b818154811061172a57fe5b9060005260206000209060030201600091509050806000018054600181600116156101000203166002900480601f0160208091040260200160405190810160405280929190818152602001828054600181600116156101000203166002900480156117d65780601f106117ab576101008083540402835291602001916117d6565b820191906000526020600020905b8154815290600101906020018083116117b957829003601f168201915b505050505090806001018054600181600116156101000203166002900480601f0160208091040260200160405190810160405280929190818152602001828054600181600116156101000203166002900480156118745780601f1061184957610100808354040283529160200191611874565b820191906000526020600020905b81548152906001019060200180831161185757829003601f168201915b5050505050908060020160009054906101000a900473ffffffffffffffffffffffffffffffffffffffff16905083565b6118ac61207c565b73ffffffffffffffffffffffffffffffffffffffff168273ffffffffffffffffffffffffffffffffffffffff16141561194d576040517f08c379a00000000000000000000000000000000000000000000000000000000081526004018080602001828103825260198152602001807f4552433732313a20617070726f766520746f2063616c6c65720000000000000081525060200191505060405180910390fd5b806005600061195a61207c565b73ffffffffffffffffffffffffffffffffffffffff1673ffffffffffffffffffffffffffffffffffffffff16815260200190815260200160002060008473ffffffffffffffffffffffffffffffffffffffff1673ffffffffffffffffffffffffffffffffffffffff16815260200190815260200160002060006101000a81548160ff0219169083151502179055508173ffffffffffffffffffffffffffffffffffffffff16611a0761207c565b73ffffffffffffffffffffffffffffffffffffffff167f17307eab39ab6107e8899845ad3d59bd9653f200f220920489ca2b5937696c318360405180821515815260200191505060405180910390a35050565b611a6b611a6561207c565b83612152565b611ac0576040517f08c379a00000000000000000000000000000000000000000000000000000000081526004018080602001828103825260318152602001806132f66031913960400191505060405180910390fd5b611acc84848484612503565b50505050565b6060611add8261205f565b611b32576040517f08c379a000000000000000000000000000000000000000000000000000000000815260040180806020018281038252602f8152602001806132a6602f913960400191505060405180910390fd5b6060600860008481526020019081526020016000208054600181600116156101000203166002900480601f016020809104026020016040519081016040528092919081815260200182805460018160011615610100020316600290048015611bdb5780601f10611bb057610100808354040283529160200191611bdb565b820191906000526020600020905b815481529060010190602001808311611bbe57829003601f168201915b50505050509050600060098054600181600116156101000203166002900490501415611c0a5780915050611db6565b600081511115611ce3576009816040516020018083805460018160011615610100020316600290048015611c755780601f10611c53576101008083540402835291820191611c75565b820191906000526020600020905b815481529060010190602001808311611c61575b505082805190602001908083835b60208310611ca65780518252602082019150602081019050602083039250611c83565b6001836020036101000a03801982511681845116808217855250505050505090500192505050604051602081830303815290604052915050611db6565b6009611cee84612575565b6040516020018083805460018160011615610100020316600290048015611d4c5780601f10611d2a576101008083540402835291820191611d4c565b820191906000526020600020905b815481529060010190602001808311611d38575b505082805190602001908083835b60208310611d7d5780518252602082019150602081019050602083039250611d5a565b6001836020036101000a038019825116818451168082178552505050505050905001925050506040516020818303038152906040529150505b919050565b6000600560008473ffffffffffffffffffffffffffffffffffffffff1673ffffffffffffffffffffffffffffffffffffffff16815260200190815260200160002060008373ffffffffffffffffffffffffffffffffffffffff1673ffffffffffffffffffffffffffffffffffffffff16815260200190815260200160002060009054906101000a900460ff16905092915050565b611e5761207c565b73ffffffffffffffffffffffffffffffffffffffff16600a60009054906101000a900473ffffffffffffffffffffffffffffffffffffffff1673ffffffffffffffffffffffffffffffffffffffff1614611f19576040517f08c379a00000000000000000000000000000000000000000000000000000000081526004018080602001828103825260208152602001807f4f776e61626c653a2063616c6c6572206973206e6f7420746865206f776e657281525060200191505060405180910390fd5b600073ffffffffffffffffffffffffffffffffffffffff168173ffffffffffffffffffffffffffffffffffffffff161415611f9f576040517f08c379a000000000000000000000000000000000000000000000000000000000815260040180806020018281038252602681526020018061312e6026913960400191505060405180910390fd5b8073ffffffffffffffffffffffffffffffffffffffff16600a60009054906101000a900473ffffffffffffffffffffffffffffffffffffffff1673ffffffffffffffffffffffffffffffffffffffff167f8be0079c531659141344cd1fd0a4f28419497f9722a3daafe3b4186f6b6457e060405160405180910390a380600a60006101000a81548173ffffffffffffffffffffffffffffffffffffffff021916908373ffffffffffffffffffffffffffffffffffffffff16021790555050565b60006120758260026126bc90919063ffffffff16565b9050919050565b600033905090565b816004600083815260200190815260200160002060006101000a81548173ffffffffffffffffffffffffffffffffffffffff021916908373ffffffffffffffffffffffffffffffffffffffff160217905550808273ffffffffffffffffffffffffffffffffffffffff166120f783611318565b73ffffffffffffffffffffffffffffffffffffffff167f8c5be1e5ebec7d5bd14f71427d1e84f3dd0314c0f7b2291e5b200ac8c7c3b92560405160405180910390a45050565b600061214b826000016126d6565b9050919050565b600061215d8261205f565b6121b2576040517f08c379a000000000000000000000000000000000000000000000000000000000815260040180806020018281038252602c815260200180613178602c913960400191505060405180910390fd5b60006121bd83611318565b90508073ffffffffffffffffffffffffffffffffffffffff168473ffffffffffffffffffffffffffffffffffffffff16148061222c57508373ffffffffffffffffffffffffffffffffffffffff1661221484610caa565b73ffffffffffffffffffffffffffffffffffffffff16145b8061223d575061223c8185611dbb565b5b91505092915050565b8273ffffffffffffffffffffffffffffffffffffffff1661226682611318565b73ffffffffffffffffffffffffffffffffffffffff16146122d2576040517f08c379a000000000000000000000000000000000000000000000000000000000815260040180806020018281038252602981526020018061327d6029913960400191505060405180910390fd5b600073ffffffffffffffffffffffffffffffffffffffff168273ffffffffffffffffffffffffffffffffffffffff161415612358576040517f08c379a00000000000000000000000000000000000000000000000000000000081526004018080602001828103825260248152602001806131546024913960400191505060405180910390fd5b6123638383836126e7565b61236e600082612084565b6123bf81600160008673ffffffffffffffffffffffffffffffffffffffff1673ffffffffffffffffffffffffffffffffffffffff1681526020019081526020016000206126ec90919063ffffffff16565b5061241181600160008573ffffffffffffffffffffffffffffffffffffffff1673ffffffffffffffffffffffffffffffffffffffff16815260200190815260200160002061270690919063ffffffff16565b50612428818360026127209092919063ffffffff16565b50808273ffffffffffffffffffffffffffffffffffffffff168473ffffffffffffffffffffffffffffffffffffffff167fddf252ad1be2c89b69c2b068fc378daa952ba7f163c4a11628f55a4df523b3ef60405160405180910390a4505050565b60006124988360000183612755565b60001c905092915050565b6000806000806124b686600001866127d8565b915091508160001c8160001c9350935050509250929050565b60006124e2846000018460001b84612871565b60001c90509392505050565b60006124fc82600001612967565b9050919050565b61250e848484612246565b61251a84848484612978565b61256f576040517f08c379a00000000000000000000000000000000000000000000000000000000081526004018080602001828103825260328152602001806130fc6032913960400191505060405180910390fd5b50505050565b606060008214156125bd576040518060400160405280600181526020017f300000000000000000000000000000000000000000000000000000000000000081525090506126b7565b600082905060005b600082146125e7578080600101915050600a82816125df57fe5b0491506125c5565b60608167ffffffffffffffff8111801561260057600080fd5b506040519080825280601f01601f1916602001820160405280156126335781602001600182028036833780820191505090505b50905060006001830390508593505b600084146126af57600a848161265457fe5b0660300160f81b8282806001900393508151811061266e57fe5b60200101907effffffffffffffffffffffffffffffffffffffffffffffffffffffffffffff1916908160001a905350600a84816126a757fe5b049350612642565b819450505050505b919050565b60006126ce836000018360001b612b91565b905092915050565b600081600001805490509050919050565b505050565b60006126fe836000018360001b612bb4565b905092915050565b6000612718836000018360001b612c9c565b905092915050565b600061274c846000018460001b8473ffffffffffffffffffffffffffffffffffffffff1660001b612d0c565b90509392505050565b6000818360000180549050116127b6576040517f08c379a00000000000000000000000000000000000000000000000000000000081526004018080602001828103825260228152602001806130da6022913960400191505060405180910390fd5b8260000182815481106127c557fe5b9060005260206000200154905092915050565b6000808284600001805490501161283a576040517f08c379a000000000000000000000000000000000000000000000000000000000815260040180806020018281038252602281526020018061322f6022913960400191505060405180910390fd5b600084600001848154811061284b57fe5b906000526020600020906002020190508060000154816001015492509250509250929050565b60008084600101600085815260200190815260200160002054905060008114158390612938576040517f08c379a00000000000000000000000000000000000000000000000000000000081526004018080602001828103825283818151815260200191508051906020019080838360005b838110156128fd5780820151818401526020810190506128e2565b50505050905090810190601f16801561292a5780820380516001836020036101000a031916815260200191505b509250505060405180910390fd5b5084600001600182038154811061294b57fe5b9060005260206000209060020201600101549150509392505050565b600081600001805490509050919050565b60006129998473ffffffffffffffffffffffffffffffffffffffff16612de8565b6129a65760019050612b89565b6060612b1063150b7a0260e01b6129bb61207c565b888787604051602401808573ffffffffffffffffffffffffffffffffffffffff1681526020018473ffffffffffffffffffffffffffffffffffffffff16815260200183815260200180602001828103825283818151815260200191508051906020019080838360005b83811015612a3f578082015181840152602081019050612a24565b50505050905090810190601f168015612a6c5780820380516001836020036101000a031916815260200191505b5095505050505050604051602081830303815290604052907bffffffffffffffffffffffffffffffffffffffffffffffffffffffff19166020820180517bffffffffffffffffffffffffffffffffffffffffffffffffffffffff83818316178352505050506040518060600160405280603281526020016130fc603291398773ffffffffffffffffffffffffffffffffffffffff16612dfb9092919063ffffffff16565b90506000818060200190516020811015612b2957600080fd5b8101908080519060200190929190505050905063150b7a0260e01b7bffffffffffffffffffffffffffffffffffffffffffffffffffffffff1916817bffffffffffffffffffffffffffffffffffffffffffffffffffffffff191614925050505b949350505050565b600080836001016000848152602001908152602001600020541415905092915050565b60008083600101600084815260200190815260200160002054905060008114612c905760006001820390506000600186600001805490500390506000866000018281548110612bff57fe5b9060005260206000200154905080876000018481548110612c1c57fe5b9060005260206000200181905550600183018760010160008381526020019081526020016000208190555086600001805480612c5457fe5b60019003818190600052602060002001600090559055866001016000878152602001908152602001600020600090556001945050505050612c96565b60009150505b92915050565b6000612ca88383612e13565b612d01578260000182908060018154018082558091505060019003906000526020600020016000909190919091505582600001805490508360010160008481526020019081526020016000208190555060019050612d06565b600090505b92915050565b6000808460010160008581526020019081526020016000205490506000811415612db357846000016040518060400160405280868152602001858152509080600181540180825580915050600190039060005260206000209060020201600090919091909150600082015181600001556020820151816001015550508460000180549050856001016000868152602001908152602001600020819055506001915050612de1565b82856000016001830381548110612dc657fe5b90600052602060002090600202016001018190555060009150505b9392505050565b600080823b905060008111915050919050565b6060612e0a8484600085612e36565b90509392505050565b600080836001016000848152602001908152602001600020541415905092915050565b6060612e4185612de8565b612eb3576040517f08c379a000000000000000000000000000000000000000000000000000000000815260040180806020018281038252601d8152602001807f416464726573733a2063616c6c20746f206e6f6e2d636f6e747261637400000081525060200191505060405180910390fd5b600060608673ffffffffffffffffffffffffffffffffffffffff1685876040518082805190602001908083835b60208310612f035780518252602082019150602081019050602083039250612ee0565b6001836020036101000a03801982511681845116808217855250505050505090500191505060006040518083038185875af1925050503d8060008114612f65576040519150601f19603f3d011682016040523d82523d6000602084013e612f6a565b606091505b50915091508115612f7f578092505050613034565b600081511115612f925780518082602001fd5b836040517f08c379a00000000000000000000000000000000000000000000000000000000081526004018080602001828103825283818151815260200191508051906020019080838360005b83811015612ff9578082015181840152602081019050612fde565b50505050905090810190601f1680156130265780820380516001836020036101000a031916815260200191505b509250505060405180910390fd5b949350505050565b828054600181600116156101000203166002900490600052602060002090601f016020900481019282601f1061307d57805160ff19168380011785556130ab565b828001600101855582156130ab579182015b828111156130aa57825182559160200191906001019061308f565b5b5090506130b891906130bc565b5090565b5b808211156130d55760008160009055506001016130bd565b509056fe456e756d657261626c655365743a20696e646578206f7574206f6620626f756e64734552433732313a207472616e7366657220746f206e6f6e20455243373231526563656976657220696d706c656d656e7465724f776e61626c653a206e6577206f776e657220697320746865207a65726f20616464726573734552433732313a207472616e7366657220746f20746865207a65726f20616464726573734552433732313a206f70657261746f7220717565727920666f72206e6f6e6578697374656e7420746f6b656e4552433732313a20617070726f76652063616c6c6572206973206e6f74206f776e6572206e6f7220617070726f76656420666f7220616c6c4552433732313a2062616c616e636520717565727920666f7220746865207a65726f20616464726573734552433732313a206f776e657220717565727920666f72206e6f6e6578697374656e7420746f6b656e456e756d657261626c654d61703a20696e646578206f7574206f6620626f756e64734552433732313a20617070726f76656420717565727920666f72206e6f6e6578697374656e7420746f6b656e4552433732313a207472616e73666572206f6620746f6b656e2074686174206973206e6f74206f776e4552433732314d657461646174613a2055524920717565727920666f72206e6f6e6578697374656e7420746f6b656e4552433732313a20617070726f76616c20746f2063757272656e74206f776e65724552433732313a207472616e736665722063616c6c6572206973206e6f74206f776e6572206e6f7220617070726f766564a264697066735822122012cda923ce586ecec4eeb87fd6fdb578cadc9912dd593e1bf640266a1d5d45a664736f6c634300060c0033",
  "immutableReferences": {},
  "source": "pragma solidity >=0.4.25 <6.2.0;\n\nimport \"./openzeppelin-solidity/contracts/math/SafeMath.sol\";\nimport './openzeppelin-solidity/contracts/token/ERC721/ERC721.sol';\n import \"./openzeppelin-solidity/contracts/access/Ownable.sol\";\n\n\ncontract Sampark is ERC721 , Ownable {\n\n\n    using SafeMath for uint256;\n    using SafeMath for uint32;\n    using SafeMath for uint16;\n\n\n    event NewArt( string name , string skylink , address curOwnerAdd);\n\n    // Global Variable now\n\n    // uint256 token_id;\n    // string skylink;\n    // string[] public art_work;\n    // address ;\n\n    struct Art {\n        // uint256 token_id;\n        string name;\n        string skylink;\n        address curOwnerAdd;\n    }\n\n    Art[] public  allartwork;\n\n    mapping (string => bool) _artwork_exist;\n    mapping (uint => address) ArtToOwner;\n    // Constructor\n\n    constructor() ERC721(\"Art\",\"ART\") public {\n\n    }\n    // mint function to create new tokens\n\n     function CreateArt(string memory _artwork, string memory Name) public {\n// returns(uint256 _token_id, string memory _name,string memory _skylink, address _curOwnerAdd)\n      require(!_artwork_exist[_artwork]);\n      allartwork.push(Art(Name, _artwork, msg.sender));\n      uint id = allartwork.length;\n      ArtToOwner[id] = msg.sender;\n      emit NewArt(Name ,_artwork,  msg.sender );\n      // uint256 _id = art_work.push(_artwork);\n       // uint _id = allartwork.push(Art(Name, msg.sender , _artwork));\n\n\n      // allartwork.push(Art(Name, msg.sender , _artwork));\n\n      // _mint(msg.sender, _artwork);\n      _artwork_exist[_artwork] = true;\n\n      // Art memory art = Art({\n      //       token_id: art_work.push(_artwork),\n      //       name: Name,\n      //       curOwnerAdd: msg.sender,\n      //       skylink: _artwork\n      //   });\n      //\n      //   allartwork.push(art);\n\n      // return (art.token_id ,art.name , art.skylink, art.curOwnerAdd);\n\n    }\n\n    // function buy(address _from ,address _to,string memory _token_id) public returns(bool){\n    //\n    //   // safeTransferFrom(_from,  _to,  _token_id);\n    //\n    //   ArtToOwner[_token_id] = _to;\n    //\n    //   return true;\n    // }\n    //\n    // function checkOwner(string memory _token_id) public returns(address){\n    //\n    //   return ArtToOwner[_token_id];\n    // }\n\n  }\n",
  "sourcePath": "/home/escavalier/Documents/Cosmos/HackAtom-V/sampark/contracts/sampark.sol",
  "compiler": {
    "name": "solc",
    "version": "0.6.12+commit.27d51765.Emscripten.clang"
  },
  "schemaVersion": "3.3.1",
  "updatedAt": "2020-10-27T17:53:12.065Z",
  "devdoc": {
    "kind": "dev",
    "methods": {
      "approve(address,uint256)": {
        "details": "See {IERC721-approve}."
      },
      "balanceOf(address)": {
        "details": "See {IERC721-balanceOf}."
      },
      "baseURI()": {
        "details": "Returns the base URI set via {_setBaseURI}. This will be automatically added as a prefix in {tokenURI} to each token's URI, or to the token ID if no specific URI is set for that token ID."
      },
      "getApproved(uint256)": {
        "details": "See {IERC721-getApproved}."
      },
      "isApprovedForAll(address,address)": {
        "details": "See {IERC721-isApprovedForAll}."
      },
      "name()": {
        "details": "See {IERC721Metadata-name}."
      },
      "owner()": {
        "details": "Returns the address of the current owner."
      },
      "ownerOf(uint256)": {
        "details": "See {IERC721-ownerOf}."
      },
      "renounceOwnership()": {
        "details": "Leaves the contract without owner. It will not be possible to call `onlyOwner` functions anymore. Can only be called by the current owner. NOTE: Renouncing ownership will leave the contract without an owner, thereby removing any functionality that is only available to the owner."
      },
      "safeTransferFrom(address,address,uint256)": {
        "details": "See {IERC721-safeTransferFrom}."
      },
      "safeTransferFrom(address,address,uint256,bytes)": {
        "details": "See {IERC721-safeTransferFrom}."
      },
      "setApprovalForAll(address,bool)": {
        "details": "See {IERC721-setApprovalForAll}."
      },
      "supportsInterface(bytes4)": {
        "details": "See {IERC165-supportsInterface}. Time complexity O(1), guaranteed to always use less than 30 000 gas."
      },
      "symbol()": {
        "details": "See {IERC721Metadata-symbol}."
      },
      "tokenByIndex(uint256)": {
        "details": "See {IERC721Enumerable-tokenByIndex}."
      },
      "tokenOfOwnerByIndex(address,uint256)": {
        "details": "See {IERC721Enumerable-tokenOfOwnerByIndex}."
      },
      "tokenURI(uint256)": {
        "details": "See {IERC721Metadata-tokenURI}."
      },
      "totalSupply()": {
        "details": "See {IERC721Enumerable-totalSupply}."
      },
      "transferFrom(address,address,uint256)": {
        "details": "See {IERC721-transferFrom}."
      },
      "transferOwnership(address)": {
        "details": "Transfers ownership of the contract to a new account (`newOwner`). Can only be called by the current owner."
      }
    },
    "version": 1
  },
  "userdoc": {
    "kind": "user",
    "methods": {},
    "version": 1
  }
}