{
  "contractName": "Sampark",
  "abi": [
    {
      "inputs": [],
      "stateMutability": "nonpayable",
      "type": "constructor"
    },
    {
      "anonymous": false,
      "inputs": [
        {
          "indexed": true,
          "internalType": "address",
          "name": "owner",
          "type": "address"
        },
        {
          "indexed": true,
          "internalType": "address",
          "name": "approved",
          "type": "address"
        },
        {
          "indexed": true,
          "internalType": "uint256",
          "name": "tokenId",
          "type": "uint256"
        }
      ],
      "name": "Approval",
      "type": "event"
    },
    {
      "anonymous": false,
      "inputs": [
        {
          "indexed": true,
          "internalType": "address",
          "name": "owner",
          "type": "address"
        },
        {
          "indexed": true,
          "internalType": "address",
          "name": "operator",
          "type": "address"
        },
        {
          "indexed": false,
          "internalType": "bool",
          "name": "approved",
          "type": "bool"
        }
      ],
      "name": "ApprovalForAll",
      "type": "event"
    },
    {
      "anonymous": false,
      "inputs": [
        {
          "indexed": false,
          "internalType": "string",
          "name": "name",
          "type": "string"
        },
        {
          "indexed": false,
          "internalType": "string",
          "name": "skylink",
          "type": "string"
        },
        {
          "indexed": false,
          "internalType": "address",
          "name": "curOwnerAdd",
          "type": "address"
        }
      ],
      "name": "NewArt",
      "type": "event"
    },
    {
      "anonymous": false,
      "inputs": [
        {
          "indexed": true,
          "internalType": "address",
          "name": "previousOwner",
          "type": "address"
        },
        {
          "indexed": true,
          "internalType": "address",
          "name": "newOwner",
          "type": "address"
        }
      ],
      "name": "OwnershipTransferred",
      "type": "event"
    },
    {
      "anonymous": false,
      "inputs": [
        {
          "indexed": true,
          "internalType": "address",
          "name": "from",
          "type": "address"
        },
        {
          "indexed": true,
          "internalType": "address",
          "name": "to",
          "type": "address"
        },
        {
          "indexed": true,
          "internalType": "uint256",
          "name": "tokenId",
          "type": "uint256"
        }
      ],
      "name": "Transfer",
      "type": "event"
    },
    {
      "inputs": [
        {
          "internalType": "uint256",
          "name": "",
          "type": "uint256"
        }
      ],
      "name": "ArtToOwner",
      "outputs": [
        {
          "internalType": "address",
          "name": "",
          "type": "address"
        }
      ],
      "stateMutability": "view",
      "type": "function"
    },
    {
      "inputs": [
        {
          "internalType": "uint256",
          "name": "",
          "type": "uint256"
        }
      ],
      "name": "allartwork",
      "outputs": [
        {
          "internalType": "string",
          "name": "name",
          "type": "string"
        },
        {
          "internalType": "string",
          "name": "skylink",
          "type": "string"
        },
        {
          "internalType": "address",
          "name": "curOwnerAdd",
          "type": "address"
        }
      ],
      "stateMutability": "view",
      "type": "function"
    },
    {
      "inputs": [
        {
          "internalType": "address",
          "name": "to",
          "type": "address"
        },
        {
          "internalType": "uint256",
          "name": "tokenId",
          "type": "uint256"
        }
      ],
      "name": "approve",
      "outputs": [],
      "stateMutability": "nonpayable",
      "type": "function"
    },
    {
      "inputs": [
        {
          "internalType": "address",
          "name": "owner",
          "type": "address"
        }
      ],
      "name": "balanceOf",
      "outputs": [
        {
          "internalType": "uint256",
          "name": "",
          "type": "uint256"
        }
      ],
      "stateMutability": "view",
      "type": "function"
    },
    {
      "inputs": [],
      "name": "baseURI",
      "outputs": [
        {
          "internalType": "string",
          "name": "",
          "type": "string"
        }
      ],
      "stateMutability": "view",
      "type": "function"
    },
    {
      "inputs": [
        {
          "internalType": "uint256",
          "name": "tokenId",
          "type": "uint256"
        }
      ],
      "name": "getApproved",
      "outputs": [
        {
          "internalType": "address",
          "name": "",
          "type": "address"
        }
      ],
      "stateMutability": "view",
      "type": "function"
    },
    {
      "inputs": [
        {
          "internalType": "address",
          "name": "owner",
          "type": "address"
        },
        {
          "internalType": "address",
          "name": "operator",
          "type": "address"
        }
      ],
      "name": "isApprovedForAll",
      "outputs": [
        {
          "internalType": "bool",
          "name": "",
          "type": "bool"
        }
      ],
      "stateMutability": "view",
      "type": "function"
    },
    {
      "inputs": [],
      "name": "name",
      "outputs": [
        {
          "internalType": "string",
          "name": "",
          "type": "string"
        }
      ],
      "stateMutability": "view",
      "type": "function"
    },
    {
      "inputs": [],
      "name": "owner",
      "outputs": [
        {
          "internalType": "address",
          "name": "",
          "type": "address"
        }
      ],
      "stateMutability": "view",
      "type": "function"
    },
    {
      "inputs": [
        {
          "internalType": "uint256",
          "name": "tokenId",
          "type": "uint256"
        }
      ],
      "name": "ownerOf",
      "outputs": [
        {
          "internalType": "address",
          "name": "",
          "type": "address"
        }
      ],
      "stateMutability": "view",
      "type": "function"
    },
    {
      "inputs": [],
      "name": "renounceOwnership",
      "outputs": [],
      "stateMutability": "nonpayable",
      "type": "function"
    },
    {
      "inputs": [
        {
          "internalType": "address",
          "name": "from",
          "type": "address"
        },
        {
          "internalType": "address",
          "name": "to",
          "type": "address"
        },
        {
          "internalType": "uint256",
          "name": "tokenId",
          "type": "uint256"
        }
      ],
      "name": "safeTransferFrom",
      "outputs": [],
      "stateMutability": "nonpayable",
      "type": "function"
    },
    {
      "inputs": [
        {
          "internalType": "address",
          "name": "from",
          "type": "address"
        },
        {
          "internalType": "address",
          "name": "to",
          "type": "address"
        },
        {
          "internalType": "uint256",
          "name": "tokenId",
          "type": "uint256"
        },
        {
          "internalType": "bytes",
          "name": "_data",
          "type": "bytes"
        }
      ],
      "name": "safeTransferFrom",
      "outputs": [],
      "stateMutability": "nonpayable",
      "type": "function"
    },
    {
      "inputs": [
        {
          "internalType": "address",
          "name": "operator",
          "type": "address"
        },
        {
          "internalType": "bool",
          "name": "approved",
          "type": "bool"
        }
      ],
      "name": "setApprovalForAll",
      "outputs": [],
      "stateMutability": "nonpayable",
      "type": "function"
    },
    {
      "inputs": [
        {
          "internalType": "bytes4",
          "name": "interfaceId",
          "type": "bytes4"
        }
      ],
      "name": "supportsInterface",
      "outputs": [
        {
          "internalType": "bool",
          "name": "",
          "type": "bool"
        }
      ],
      "stateMutability": "view",
      "type": "function"
    },
    {
      "inputs": [],
      "name": "symbol",
      "outputs": [
        {
          "internalType": "string",
          "name": "",
          "type": "string"
        }
      ],
      "stateMutability": "view",
      "type": "function"
    },
    {
      "inputs": [
        {
          "internalType": "uint256",
          "name": "index",
          "type": "uint256"
        }
      ],
      "name": "tokenByIndex",
      "outputs": [
        {
          "internalType": "uint256",
          "name": "",
          "type": "uint256"
        }
      ],
      "stateMutability": "view",
      "type": "function"
    },
    {
      "inputs": [
        {
          "internalType": "address",
          "name": "owner",
          "type": "address"
        },
        {
          "internalType": "uint256",
          "name": "index",
          "type": "uint256"
        }
      ],
      "name": "tokenOfOwnerByIndex",
      "outputs": [
        {
          "internalType": "uint256",
          "name": "",
          "type": "uint256"
        }
      ],
      "stateMutability": "view",
      "type": "function"
    },
    {
      "inputs": [
        {
          "internalType": "uint256",
          "name": "tokenId",
          "type": "uint256"
        }
      ],
      "name": "tokenURI",
      "outputs": [
        {
          "internalType": "string",
          "name": "",
          "type": "string"
        }
      ],
      "stateMutability": "view",
      "type": "function"
    },
    {
      "inputs": [],
      "name": "totalSupply",
      "outputs": [
        {
          "internalType": "uint256",
          "name": "",
          "type": "uint256"
        }
      ],
      "stateMutability": "view",
      "type": "function"
    },
    {
      "inputs": [
        {
          "internalType": "address",
          "name": "from",
          "type": "address"
        },
        {
          "internalType": "address",
          "name": "to",
          "type": "address"
        },
        {
          "internalType": "uint256",
          "name": "tokenId",
          "type": "uint256"
        }
      ],
      "name": "transferFrom",
      "outputs": [],
      "stateMutability": "nonpayable",
      "type": "function"
    },
    {
      "inputs": [
        {
          "internalType": "address",
          "name": "newOwner",
          "type": "address"
        }
      ],
      "name": "transferOwnership",
      "outputs": [],
      "stateMutability": "nonpayable",
      "type": "function"
    },
    {
      "inputs": [
        {
          "internalType": "string",
          "name": "_artwork",
          "type": "string"
        },
        {
          "internalType": "string",
          "name": "Name",
          "type": "string"
        }
      ],
      "name": "CreateArt",
      "outputs": [],
      "stateMutability": "nonpayable",
      "type": "function"
    },
    {
      "inputs": [
        {
          "internalType": "uint256",
          "name": "_token_id",
          "type": "uint256"
        }
      ],
      "name": "checkOwner",
      "outputs": [
        {
          "internalType": "address",
          "name": "",
          "type": "address"
        }
      ],
      "stateMutability": "view",
      "type": "function"
    }
  ],
  "bytecode": "0x60806040523480156200001157600080fd5b506040518060400160405280600381526020017f41727400000000000000000000000000000000000000000000000000000000008152506040518060400160405280600381526020017f4152540000000000000000000000000000000000000000000000000000000000815250620000966301ffc9a760e01b620001c960201b60201c565b8160069080519060200190620000ae929190620002da565b508060079080519060200190620000c7929190620002da565b50620000e06380ac58cd60e01b620001c960201b60201c565b620000f8635b5e139f60e01b620001c960201b60201c565b6200011063780e9d6360e01b620001c960201b60201c565b5050600062000124620002d260201b60201c565b905080600a60006101000a81548173ffffffffffffffffffffffffffffffffffffffff021916908373ffffffffffffffffffffffffffffffffffffffff1602179055508073ffffffffffffffffffffffffffffffffffffffff16600073ffffffffffffffffffffffffffffffffffffffff167f8be0079c531659141344cd1fd0a4f28419497f9722a3daafe3b4186f6b6457e060405160405180910390a35062000380565b63ffffffff60e01b817bffffffffffffffffffffffffffffffffffffffffffffffffffffffff1916141562000266576040517f08c379a000000000000000000000000000000000000000000000000000000000815260040180806020018281038252601c8152602001807f4552433136353a20696e76616c696420696e746572666163652069640000000081525060200191505060405180910390fd5b6001600080837bffffffffffffffffffffffffffffffffffffffffffffffffffffffff19167bffffffffffffffffffffffffffffffffffffffffffffffffffffffff1916815260200190815260200160002060006101000a81548160ff02191690831515021790555050565b600033905090565b828054600181600116156101000203166002900490600052602060002090601f016020900481019282601f106200031d57805160ff19168380011785556200034e565b828001600101855582156200034e579182015b828111156200034d57825182559160200191906001019062000330565b5b5090506200035d919062000361565b5090565b5b808211156200037c57600081600090555060010162000362565b5090565b61349c80620003906000396000f3fe608060405234801561001057600080fd5b50600436106101585760003560e01c806370a08231116100c3578063a22cb4651161007c578063a22cb46514610955578063b88d4fde146109a5578063c87b56dd14610aaa578063e985e9c514610b51578063f2fde38b14610bcb578063f9f3a4ee14610c0f57610158565b806370a08231146106b4578063715018a61461070c5780638da5cb5b1461071657806395d89b411461074a578063960a555a146107cd5780639870dce0146108fd57610158565b80632ba79adb116101155780632ba79adb146103755780632f745c59146104c757806342842e0e146105295780634f6ccce7146105975780636352211e146105d95780636c0360eb1461063157610158565b806301ffc9a71461015d57806306fdde03146101c0578063081812fc14610243578063095ea7b31461029b57806318160ddd146102e957806323b872dd14610307575b600080fd5b6101a86004803603602081101561017357600080fd5b8101908080357bffffffffffffffffffffffffffffffffffffffffffffffffffffffff19169060200190929190505050610c67565b60405180821515815260200191505060405180910390f35b6101c8610cce565b6040518080602001828103825283818151815260200191508051906020019080838360005b838110156102085780820151818401526020810190506101ed565b50505050905090810190601f1680156102355780820380516001836020036101000a031916815260200191505b509250505060405180910390f35b61026f6004803603602081101561025957600080fd5b8101908080359060200190929190505050610d70565b604051808273ffffffffffffffffffffffffffffffffffffffff16815260200191505060405180910390f35b6102e7600480360360408110156102b157600080fd5b81019080803573ffffffffffffffffffffffffffffffffffffffff16906020019092919080359060200190929190505050610e0b565b005b6102f1610f4f565b6040518082815260200191505060405180910390f35b6103736004803603606081101561031d57600080fd5b81019080803573ffffffffffffffffffffffffffffffffffffffff169060200190929190803573ffffffffffffffffffffffffffffffffffffffff16906020019092919080359060200190929190505050610f60565b005b6104c56004803603604081101561038b57600080fd5b81019080803590602001906401000000008111156103a857600080fd5b8201836020820111156103ba57600080fd5b803590602001918460018302840111640100000000831117156103dc57600080fd5b91908080601f016020809104026020016040519081016040528093929190818152602001838380828437600081840152601f19601f8201169050808301925050505050505091929192908035906020019064010000000081111561043f57600080fd5b82018360208201111561045157600080fd5b8035906020019184600183028401116401000000008311171561047357600080fd5b91908080601f016020809104026020016040519081016040528093929190818152602001838380828437600081840152601f19601f820116905080830192505050505050509192919290505050610fd6565b005b610513600480360360408110156104dd57600080fd5b81019080803573ffffffffffffffffffffffffffffffffffffffff16906020019092919080359060200190929190505050611340565b6040518082815260200191505060405180910390f35b6105956004803603606081101561053f57600080fd5b81019080803573ffffffffffffffffffffffffffffffffffffffff169060200190929190803573ffffffffffffffffffffffffffffffffffffffff1690602001909291908035906020019092919050505061139b565b005b6105c3600480360360208110156105ad57600080fd5b81019080803590602001909291905050506113bb565b6040518082815260200191505060405180910390f35b610605600480360360208110156105ef57600080fd5b81019080803590602001909291905050506113de565b604051808273ffffffffffffffffffffffffffffffffffffffff16815260200191505060405180910390f35b610639611415565b6040518080602001828103825283818151815260200191508051906020019080838360005b8381101561067957808201518184015260208101905061065e565b50505050905090810190601f1680156106a65780820380516001836020036101000a031916815260200191505b509250505060405180910390f35b6106f6600480360360208110156106ca57600080fd5b81019080803573ffffffffffffffffffffffffffffffffffffffff1690602001909291905050506114b7565b6040518082815260200191505060405180910390f35b61071461158c565b005b61071e611717565b604051808273ffffffffffffffffffffffffffffffffffffffff16815260200191505060405180910390f35b610752611741565b6040518080602001828103825283818151815260200191508051906020019080838360005b83811015610792578082015181840152602081019050610777565b50505050905090810190601f1680156107bf5780820380516001836020036101000a031916815260200191505b509250505060405180910390f35b6107f9600480360360208110156107e357600080fd5b81019080803590602001909291905050506117e3565b6040518080602001806020018473ffffffffffffffffffffffffffffffffffffffff168152602001838103835286818151815260200191508051906020019080838360005b8381101561085957808201518184015260208101905061083e565b50505050905090810190601f1680156108865780820380516001836020036101000a031916815260200191505b50838103825285818151815260200191508051906020019080838360005b838110156108bf5780820151818401526020810190506108a4565b50505050905090810190601f1680156108ec5780820380516001836020036101000a031916815260200191505b509550505050505060405180910390f35b6109296004803603602081101561091357600080fd5b810190808035906020019092919050505061196a565b604051808273ffffffffffffffffffffffffffffffffffffffff16815260200191505060405180910390f35b6109a36004803603604081101561096b57600080fd5b81019080803573ffffffffffffffffffffffffffffffffffffffff1690602001909291908035151590602001909291905050506119b1565b005b610aa8600480360360808110156109bb57600080fd5b81019080803573ffffffffffffffffffffffffffffffffffffffff169060200190929190803573ffffffffffffffffffffffffffffffffffffffff1690602001909291908035906020019092919080359060200190640100000000811115610a2257600080fd5b820183602082011115610a3457600080fd5b80359060200191846001830284011164010000000083111715610a5657600080fd5b91908080601f016020809104026020016040519081016040528093929190818152602001838380828437600081840152601f19601f820116905080830192505050505050509192919290505050611b67565b005b610ad660048036036020811015610ac057600080fd5b8101908080359060200190929190505050611bdf565b6040518080602001828103825283818151815260200191508051906020019080838360005b83811015610b16578082015181840152602081019050610afb565b50505050905090810190601f168015610b435780820380516001836020036101000a031916815260200191505b509250505060405180910390f35b610bb360048036036040811015610b6757600080fd5b81019080803573ffffffffffffffffffffffffffffffffffffffff169060200190929190803573ffffffffffffffffffffffffffffffffffffffff169060200190929190505050611ec8565b60405180821515815260200191505060405180910390f35b610c0d60048036036020811015610be157600080fd5b81019080803573ffffffffffffffffffffffffffffffffffffffff169060200190929190505050611f5c565b005b610c3b60048036036020811015610c2557600080fd5b810190808035906020019092919050505061216c565b604051808273ffffffffffffffffffffffffffffffffffffffff16815260200191505060405180910390f35b6000806000837bffffffffffffffffffffffffffffffffffffffffffffffffffffffff19167bffffffffffffffffffffffffffffffffffffffffffffffffffffffff1916815260200190815260200160002060009054906101000a900460ff169050919050565b606060068054600181600116156101000203166002900480601f016020809104026020016040519081016040528092919081815260200182805460018160011615610100020316600290048015610d665780601f10610d3b57610100808354040283529160200191610d66565b820191906000526020600020905b815481529060010190602001808311610d4957829003601f168201915b5050505050905090565b6000610d7b8261219f565b610dd0576040517f08c379a000000000000000000000000000000000000000000000000000000000815260040180806020018281038252602c815260200180613391602c913960400191505060405180910390fd5b6004600083815260200190815260200160002060009054906101000a900473ffffffffffffffffffffffffffffffffffffffff169050919050565b6000610e16826113de565b90508073ffffffffffffffffffffffffffffffffffffffff168373ffffffffffffffffffffffffffffffffffffffff161415610e9d576040517f08c379a00000000000000000000000000000000000000000000000000000000081526004018080602001828103825260218152602001806134156021913960400191505060405180910390fd5b8073ffffffffffffffffffffffffffffffffffffffff16610ebc6121bc565b73ffffffffffffffffffffffffffffffffffffffff161480610eeb5750610eea81610ee56121bc565b611ec8565b5b610f40576040517f08c379a00000000000000000000000000000000000000000000000000000000081526004018080602001828103825260388152602001806132e46038913960400191505060405180910390fd5b610f4a83836121c4565b505050565b6000610f5b600261227d565b905090565b610f71610f6b6121bc565b82612292565b610fc6576040517f08c379a00000000000000000000000000000000000000000000000000000000081526004018080602001828103825260318152602001806134366031913960400191505060405180910390fd5b610fd1838383612386565b505050565b600c826040518082805190602001908083835b6020831061100c5780518252602082019150602081019050602083039250610fe9565b6001836020036101000a038019825116818451168082178552505050505050905001915050908152602001604051809103902060009054906101000a900460ff161561105757600080fd5b600b60405180606001604052808381526020018481526020013373ffffffffffffffffffffffffffffffffffffffff16815250908060018154018082558091505060019003906000526020600020906003020160009091909190915060008201518160000190805190602001906110cf92919061317c565b5060208201518160010190805190602001906110ec92919061317c565b5060408201518160020160006101000a81548173ffffffffffffffffffffffffffffffffffffffff021916908373ffffffffffffffffffffffffffffffffffffffff16021790555050506000600b80549050905033600d600083815260200190815260200160002060006101000a81548173ffffffffffffffffffffffffffffffffffffffff021916908373ffffffffffffffffffffffffffffffffffffffff1602179055507f3f2f1cf13bb027bbb2d5d1febc22cdc3d3757d806526a8aa520f9d73e9b22b048284336040518080602001806020018473ffffffffffffffffffffffffffffffffffffffff168152602001838103835286818151815260200191508051906020019080838360005b838110156112165780820151818401526020810190506111fb565b50505050905090810190601f1680156112435780820380516001836020036101000a031916815260200191505b50838103825285818151815260200191508051906020019080838360005b8381101561127c578082015181840152602081019050611261565b50505050905090810190601f1680156112a95780820380516001836020036101000a031916815260200191505b509550505050505060405180910390a16001600c846040518082805190602001908083835b602083106112f157805182526020820191506020810190506020830392506112ce565b6001836020036101000a038019825116818451168082178552505050505050905001915050908152602001604051809103902060006101000a81548160ff021916908315150217905550505050565b600061139382600160008673ffffffffffffffffffffffffffffffffffffffff1673ffffffffffffffffffffffffffffffffffffffff1681526020019081526020016000206125c990919063ffffffff16565b905092915050565b6113b683838360405180602001604052806000815250611b67565b505050565b6000806113d28360026125e390919063ffffffff16565b50905080915050919050565b600061140e8260405180606001604052806029815260200161334660299139600261260f9092919063ffffffff16565b9050919050565b606060098054600181600116156101000203166002900480601f0160208091040260200160405190810160405280929190818152602001828054600181600116156101000203166002900480156114ad5780601f10611482576101008083540402835291602001916114ad565b820191906000526020600020905b81548152906001019060200180831161149057829003601f168201915b5050505050905090565b60008073ffffffffffffffffffffffffffffffffffffffff168273ffffffffffffffffffffffffffffffffffffffff16141561153e576040517f08c379a000000000000000000000000000000000000000000000000000000000815260040180806020018281038252602a81526020018061331c602a913960400191505060405180910390fd5b611585600160008473ffffffffffffffffffffffffffffffffffffffff1673ffffffffffffffffffffffffffffffffffffffff16815260200190815260200160002061262e565b9050919050565b6115946121bc565b73ffffffffffffffffffffffffffffffffffffffff16600a60009054906101000a900473ffffffffffffffffffffffffffffffffffffffff1673ffffffffffffffffffffffffffffffffffffffff1614611656576040517f08c379a00000000000000000000000000000000000000000000000000000000081526004018080602001828103825260208152602001807f4f776e61626c653a2063616c6c6572206973206e6f7420746865206f776e657281525060200191505060405180910390fd5b600073ffffffffffffffffffffffffffffffffffffffff16600a60009054906101000a900473ffffffffffffffffffffffffffffffffffffffff1673ffffffffffffffffffffffffffffffffffffffff167f8be0079c531659141344cd1fd0a4f28419497f9722a3daafe3b4186f6b6457e060405160405180910390a36000600a60006101000a81548173ffffffffffffffffffffffffffffffffffffffff021916908373ffffffffffffffffffffffffffffffffffffffff160217905550565b6000600a60009054906101000a900473ffffffffffffffffffffffffffffffffffffffff16905090565b606060078054600181600116156101000203166002900480601f0160208091040260200160405190810160405280929190818152602001828054600181600116156101000203166002900480156117d95780601f106117ae576101008083540402835291602001916117d9565b820191906000526020600020905b8154815290600101906020018083116117bc57829003601f168201915b5050505050905090565b600b81815481106117f057fe5b9060005260206000209060030201600091509050806000018054600181600116156101000203166002900480601f01602080910402602001604051908101604052809291908181526020018280546001816001161561010002031660029004801561189c5780601f106118715761010080835404028352916020019161189c565b820191906000526020600020905b81548152906001019060200180831161187f57829003601f168201915b505050505090806001018054600181600116156101000203166002900480601f01602080910402602001604051908101604052809291908181526020018280546001816001161561010002031660029004801561193a5780601f1061190f5761010080835404028352916020019161193a565b820191906000526020600020905b81548152906001019060200180831161191d57829003601f168201915b5050505050908060020160009054906101000a900473ffffffffffffffffffffffffffffffffffffffff16905083565b6000611975826113de565b50600d600083815260200190815260200160002060009054906101000a900473ffffffffffffffffffffffffffffffffffffffff169050919050565b6119b96121bc565b73ffffffffffffffffffffffffffffffffffffffff168273ffffffffffffffffffffffffffffffffffffffff161415611a5a576040517f08c379a00000000000000000000000000000000000000000000000000000000081526004018080602001828103825260198152602001807f4552433732313a20617070726f766520746f2063616c6c65720000000000000081525060200191505060405180910390fd5b8060056000611a676121bc565b73ffffffffffffffffffffffffffffffffffffffff1673ffffffffffffffffffffffffffffffffffffffff16815260200190815260200160002060008473ffffffffffffffffffffffffffffffffffffffff1673ffffffffffffffffffffffffffffffffffffffff16815260200190815260200160002060006101000a81548160ff0219169083151502179055508173ffffffffffffffffffffffffffffffffffffffff16611b146121bc565b73ffffffffffffffffffffffffffffffffffffffff167f17307eab39ab6107e8899845ad3d59bd9653f200f220920489ca2b5937696c318360405180821515815260200191505060405180910390a35050565b611b78611b726121bc565b83612292565b611bcd576040517f08c379a00000000000000000000000000000000000000000000000000000000081526004018080602001828103825260318152602001806134366031913960400191505060405180910390fd5b611bd984848484612643565b50505050565b6060611bea8261219f565b611c3f576040517f08c379a000000000000000000000000000000000000000000000000000000000815260040180806020018281038252602f8152602001806133e6602f913960400191505060405180910390fd5b6060600860008481526020019081526020016000208054600181600116156101000203166002900480601f016020809104026020016040519081016040528092919081815260200182805460018160011615610100020316600290048015611ce85780601f10611cbd57610100808354040283529160200191611ce8565b820191906000526020600020905b815481529060010190602001808311611ccb57829003601f168201915b50505050509050600060098054600181600116156101000203166002900490501415611d175780915050611ec3565b600081511115611df0576009816040516020018083805460018160011615610100020316600290048015611d825780601f10611d60576101008083540402835291820191611d82565b820191906000526020600020905b815481529060010190602001808311611d6e575b505082805190602001908083835b60208310611db35780518252602082019150602081019050602083039250611d90565b6001836020036101000a03801982511681845116808217855250505050505090500192505050604051602081830303815290604052915050611ec3565b6009611dfb846126b5565b6040516020018083805460018160011615610100020316600290048015611e595780601f10611e37576101008083540402835291820191611e59565b820191906000526020600020905b815481529060010190602001808311611e45575b505082805190602001908083835b60208310611e8a5780518252602082019150602081019050602083039250611e67565b6001836020036101000a038019825116818451168082178552505050505050905001925050506040516020818303038152906040529150505b919050565b6000600560008473ffffffffffffffffffffffffffffffffffffffff1673ffffffffffffffffffffffffffffffffffffffff16815260200190815260200160002060008373ffffffffffffffffffffffffffffffffffffffff1673ffffffffffffffffffffffffffffffffffffffff16815260200190815260200160002060009054906101000a900460ff16905092915050565b611f646121bc565b73ffffffffffffffffffffffffffffffffffffffff16600a60009054906101000a900473ffffffffffffffffffffffffffffffffffffffff1673ffffffffffffffffffffffffffffffffffffffff1614612026576040517f08c379a00000000000000000000000000000000000000000000000000000000081526004018080602001828103825260208152602001807f4f776e61626c653a2063616c6c6572206973206e6f7420746865206f776e657281525060200191505060405180910390fd5b600073ffffffffffffffffffffffffffffffffffffffff168173ffffffffffffffffffffffffffffffffffffffff1614156120ac576040517f08c379a000000000000000000000000000000000000000000000000000000000815260040180806020018281038252602681526020018061326e6026913960400191505060405180910390fd5b8073ffffffffffffffffffffffffffffffffffffffff16600a60009054906101000a900473ffffffffffffffffffffffffffffffffffffffff1673ffffffffffffffffffffffffffffffffffffffff167f8be0079c531659141344cd1fd0a4f28419497f9722a3daafe3b4186f6b6457e060405160405180910390a380600a60006101000a81548173ffffffffffffffffffffffffffffffffffffffff021916908373ffffffffffffffffffffffffffffffffffffffff16021790555050565b600d6020528060005260406000206000915054906101000a900473ffffffffffffffffffffffffffffffffffffffff1681565b60006121b58260026127fc90919063ffffffff16565b9050919050565b600033905090565b816004600083815260200190815260200160002060006101000a81548173ffffffffffffffffffffffffffffffffffffffff021916908373ffffffffffffffffffffffffffffffffffffffff160217905550808273ffffffffffffffffffffffffffffffffffffffff16612237836113de565b73ffffffffffffffffffffffffffffffffffffffff167f8c5be1e5ebec7d5bd14f71427d1e84f3dd0314c0f7b2291e5b200ac8c7c3b92560405160405180910390a45050565b600061228b82600001612816565b9050919050565b600061229d8261219f565b6122f2576040517f08c379a000000000000000000000000000000000000000000000000000000000815260040180806020018281038252602c8152602001806132b8602c913960400191505060405180910390fd5b60006122fd836113de565b90508073ffffffffffffffffffffffffffffffffffffffff168473ffffffffffffffffffffffffffffffffffffffff16148061236c57508373ffffffffffffffffffffffffffffffffffffffff1661235484610d70565b73ffffffffffffffffffffffffffffffffffffffff16145b8061237d575061237c8185611ec8565b5b91505092915050565b8273ffffffffffffffffffffffffffffffffffffffff166123a6826113de565b73ffffffffffffffffffffffffffffffffffffffff1614612412576040517f08c379a00000000000000000000000000000000000000000000000000000000081526004018080602001828103825260298152602001806133bd6029913960400191505060405180910390fd5b600073ffffffffffffffffffffffffffffffffffffffff168273ffffffffffffffffffffffffffffffffffffffff161415612498576040517f08c379a00000000000000000000000000000000000000000000000000000000081526004018080602001828103825260248152602001806132946024913960400191505060405180910390fd5b6124a3838383612827565b6124ae6000826121c4565b6124ff81600160008673ffffffffffffffffffffffffffffffffffffffff1673ffffffffffffffffffffffffffffffffffffffff16815260200190815260200160002061282c90919063ffffffff16565b5061255181600160008573ffffffffffffffffffffffffffffffffffffffff1673ffffffffffffffffffffffffffffffffffffffff16815260200190815260200160002061284690919063ffffffff16565b50612568818360026128609092919063ffffffff16565b50808273ffffffffffffffffffffffffffffffffffffffff168473ffffffffffffffffffffffffffffffffffffffff167fddf252ad1be2c89b69c2b068fc378daa952ba7f163c4a11628f55a4df523b3ef60405160405180910390a4505050565b60006125d88360000183612895565b60001c905092915050565b6000806000806125f68660000186612918565b915091508160001c8160001c9350935050509250929050565b6000612622846000018460001b846129b1565b60001c90509392505050565b600061263c82600001612aa7565b9050919050565b61264e848484612386565b61265a84848484612ab8565b6126af576040517f08c379a000000000000000000000000000000000000000000000000000000000815260040180806020018281038252603281526020018061323c6032913960400191505060405180910390fd5b50505050565b606060008214156126fd576040518060400160405280600181526020017f300000000000000000000000000000000000000000000000000000000000000081525090506127f7565b600082905060005b60008214612727578080600101915050600a828161271f57fe5b049150612705565b60608167ffffffffffffffff8111801561274057600080fd5b506040519080825280601f01601f1916602001820160405280156127735781602001600182028036833780820191505090505b50905060006001830390508593505b600084146127ef57600a848161279457fe5b0660300160f81b828280600190039350815181106127ae57fe5b60200101907effffffffffffffffffffffffffffffffffffffffffffffffffffffffffffff1916908160001a905350600a84816127e757fe5b049350612782565b819450505050505b919050565b600061280e836000018360001b612cd1565b905092915050565b600081600001805490509050919050565b505050565b600061283e836000018360001b612cf4565b905092915050565b6000612858836000018360001b612ddc565b905092915050565b600061288c846000018460001b8473ffffffffffffffffffffffffffffffffffffffff1660001b612e4c565b90509392505050565b6000818360000180549050116128f6576040517f08c379a000000000000000000000000000000000000000000000000000000000815260040180806020018281038252602281526020018061321a6022913960400191505060405180910390fd5b82600001828154811061290557fe5b9060005260206000200154905092915050565b6000808284600001805490501161297a576040517f08c379a000000000000000000000000000000000000000000000000000000000815260040180806020018281038252602281526020018061336f6022913960400191505060405180910390fd5b600084600001848154811061298b57fe5b906000526020600020906002020190508060000154816001015492509250509250929050565b60008084600101600085815260200190815260200160002054905060008114158390612a78576040517f08c379a00000000000000000000000000000000000000000000000000000000081526004018080602001828103825283818151815260200191508051906020019080838360005b83811015612a3d578082015181840152602081019050612a22565b50505050905090810190601f168015612a6a5780820380516001836020036101000a031916815260200191505b509250505060405180910390fd5b50846000016001820381548110612a8b57fe5b9060005260206000209060020201600101549150509392505050565b600081600001805490509050919050565b6000612ad98473ffffffffffffffffffffffffffffffffffffffff16612f28565b612ae65760019050612cc9565b6060612c5063150b7a0260e01b612afb6121bc565b888787604051602401808573ffffffffffffffffffffffffffffffffffffffff1681526020018473ffffffffffffffffffffffffffffffffffffffff16815260200183815260200180602001828103825283818151815260200191508051906020019080838360005b83811015612b7f578082015181840152602081019050612b64565b50505050905090810190601f168015612bac5780820380516001836020036101000a031916815260200191505b5095505050505050604051602081830303815290604052907bffffffffffffffffffffffffffffffffffffffffffffffffffffffff19166020820180517bffffffffffffffffffffffffffffffffffffffffffffffffffffffff838183161783525050505060405180606001604052806032815260200161323c603291398773ffffffffffffffffffffffffffffffffffffffff16612f3b9092919063ffffffff16565b90506000818060200190516020811015612c6957600080fd5b8101908080519060200190929190505050905063150b7a0260e01b7bffffffffffffffffffffffffffffffffffffffffffffffffffffffff1916817bffffffffffffffffffffffffffffffffffffffffffffffffffffffff191614925050505b949350505050565b600080836001016000848152602001908152602001600020541415905092915050565b60008083600101600084815260200190815260200160002054905060008114612dd05760006001820390506000600186600001805490500390506000866000018281548110612d3f57fe5b9060005260206000200154905080876000018481548110612d5c57fe5b9060005260206000200181905550600183018760010160008381526020019081526020016000208190555086600001805480612d9457fe5b60019003818190600052602060002001600090559055866001016000878152602001908152602001600020600090556001945050505050612dd6565b60009150505b92915050565b6000612de88383612f53565b612e41578260000182908060018154018082558091505060019003906000526020600020016000909190919091505582600001805490508360010160008481526020019081526020016000208190555060019050612e46565b600090505b92915050565b6000808460010160008581526020019081526020016000205490506000811415612ef357846000016040518060400160405280868152602001858152509080600181540180825580915050600190039060005260206000209060020201600090919091909150600082015181600001556020820151816001015550508460000180549050856001016000868152602001908152602001600020819055506001915050612f21565b82856000016001830381548110612f0657fe5b90600052602060002090600202016001018190555060009150505b9392505050565b600080823b905060008111915050919050565b6060612f4a8484600085612f76565b90509392505050565b600080836001016000848152602001908152602001600020541415905092915050565b6060612f8185612f28565b612ff3576040517f08c379a000000000000000000000000000000000000000000000000000000000815260040180806020018281038252601d8152602001807f416464726573733a2063616c6c20746f206e6f6e2d636f6e747261637400000081525060200191505060405180910390fd5b600060608673ffffffffffffffffffffffffffffffffffffffff1685876040518082805190602001908083835b602083106130435780518252602082019150602081019050602083039250613020565b6001836020036101000a03801982511681845116808217855250505050505090500191505060006040518083038185875af1925050503d80600081146130a5576040519150601f19603f3d011682016040523d82523d6000602084013e6130aa565b606091505b509150915081156130bf578092505050613174565b6000815111156130d25780518082602001fd5b836040517f08c379a00000000000000000000000000000000000000000000000000000000081526004018080602001828103825283818151815260200191508051906020019080838360005b8381101561313957808201518184015260208101905061311e565b50505050905090810190601f1680156131665780820380516001836020036101000a031916815260200191505b509250505060405180910390fd5b949350505050565b828054600181600116156101000203166002900490600052602060002090601f016020900481019282601f106131bd57805160ff19168380011785556131eb565b828001600101855582156131eb579182015b828111156131ea5782518255916020019190600101906131cf565b5b5090506131f891906131fc565b5090565b5b808211156132155760008160009055506001016131fd565b509056fe456e756d657261626c655365743a20696e646578206f7574206f6620626f756e64734552433732313a207472616e7366657220746f206e6f6e20455243373231526563656976657220696d706c656d656e7465724f776e61626c653a206e6577206f776e657220697320746865207a65726f20616464726573734552433732313a207472616e7366657220746f20746865207a65726f20616464726573734552433732313a206f70657261746f7220717565727920666f72206e6f6e6578697374656e7420746f6b656e4552433732313a20617070726f76652063616c6c6572206973206e6f74206f776e6572206e6f7220617070726f76656420666f7220616c6c4552433732313a2062616c616e636520717565727920666f7220746865207a65726f20616464726573734552433732313a206f776e657220717565727920666f72206e6f6e6578697374656e7420746f6b656e456e756d657261626c654d61703a20696e646578206f7574206f6620626f756e64734552433732313a20617070726f76656420717565727920666f72206e6f6e6578697374656e7420746f6b656e4552433732313a207472616e73666572206f6620746f6b656e2074686174206973206e6f74206f776e4552433732314d657461646174613a2055524920717565727920666f72206e6f6e6578697374656e7420746f6b656e4552433732313a20617070726f76616c20746f2063757272656e74206f776e65724552433732313a207472616e736665722063616c6c6572206973206e6f74206f776e6572206e6f7220617070726f766564a26469706673582212203adf566a527e46081ce186251027a6a7677e560138690225b0956c3d26a5bfb664736f6c634300060c0033",
  "immutableReferences": {},
  "source": "pragma solidity >=0.4.25 <6.2.0;\n\nimport \"./openzeppelin-solidity/contracts/math/SafeMath.sol\";\nimport './openzeppelin-solidity/contracts/token/ERC721/ERC721.sol';\nimport \"./openzeppelin-solidity/contracts/access/Ownable.sol\";\n\n\ncontract Sampark is ERC721 , Ownable {\n\n\n    using SafeMath for uint256;\n    using SafeMath for uint32;\n    using SafeMath for uint16;\n\n\n    event NewArt( string name , string skylink , address curOwnerAdd);\n\n    // Global Variable now\n\n    // uint256 token_id;\n    // string skylink;\n    // string[] public art_work;\n    // address ;\n\n    struct Art {\n        // uint256 token_id;\n        string name;\n        string skylink;\n        address curOwnerAdd;\n    }\n\n    Art[] public  allartwork;\n\n    mapping (string => bool) _artwork_exist;\n    mapping (uint256 => address) public ArtToOwner;\n    // Constructor\n\n    constructor() ERC721(\"Art\",\"ART\") public {\n\n    }\n    // mint function to create new tokens\n\n     function CreateArt(string memory _artwork, string memory Name) public {\n// returns(uint256 _token_id, string memory _name,string memory _skylink, address _curOwnerAdd)\n      require(!_artwork_exist[_artwork]);\n      allartwork.push(Art(Name, _artwork, msg.sender));\n      uint256 id = allartwork.length;\n      ArtToOwner[id] = msg.sender;\n      emit NewArt(Name ,_artwork,  msg.sender );\n      // uint256 _id = art_work.push(_artwork);\n       // uint _id = allartwork.push(Art(Name, msg.sender , _artwork));\n\n\n      // allartwork.push(Art(Name, msg.sender , _artwork));\n\n      // _mint(msg.sender, _artwork);\n      _artwork_exist[_artwork] = true;\n\n      // Art memory art = Art({\n      //       token_id: art_work.push(_artwork),\n      //       name: Name,\n      //       curOwnerAdd: msg.sender,\n      //       skylink: _artwork\n      //   });\n      //\n      //   allartwork.push(art);\n\n      // return (art.token_id ,art.name , art.skylink, art.curOwnerAdd);\n\n    }\n\n    // function buy(address _from ,address _to,uint256 _token_id) public returns(bool){\n    //\n    //    safeTransferFrom(_from,  _to,  _token_id);\n    //\n    //   // ArtToOwner[_token_id] = _to;\n    //\n    //   return true;\n    // }\n    //\n    // function checkOwner(string memory _token_id) public returns(address){\n    //\n    //   return ArtToOwner[_token_id];\n    // }\n\n\n    function buy(address from , address to, uint256 token_id) private {\n      _transfer( from,  to,  token_id);\n      ArtToOwner[token_id] = to;\n\n    }\n\n    function checkOwner(uint256 _token_id) public view  returns (address) {\n\n      ownerOf(_token_id);\n      return ArtToOwner[_token_id];\n    }\n\n    // function _transfer(address _from, address _to, uint256 _token_id) private override {\n    //\n    //   ArtToOwner[_token_id] = _to;\n    //   emit Transfer(_from, _to, _token_id);\n    // }\n\n  }\n",
  "sourcePath": "/home/escavalier/Documents/Cosmos/HackAtom-V/sampark/src/contracts/sampark.sol",
  "compiler": {
    "name": "solc",
    "version": "0.6.12+commit.27d51765.Emscripten.clang"
  },
  "schemaVersion": "3.3.1",
  "updatedAt": "2020-10-28T09:05:42.951Z",
  "devdoc": {
    "kind": "dev",
    "methods": {
      "approve(address,uint256)": {
        "details": "See {IERC721-approve}."
      },
      "balanceOf(address)": {
        "details": "See {IERC721-balanceOf}."
      },
      "baseURI()": {
        "details": "Returns the base URI set via {_setBaseURI}. This will be automatically added as a prefix in {tokenURI} to each token's URI, or to the token ID if no specific URI is set for that token ID."
      },
      "getApproved(uint256)": {
        "details": "See {IERC721-getApproved}."
      },
      "isApprovedForAll(address,address)": {
        "details": "See {IERC721-isApprovedForAll}."
      },
      "name()": {
        "details": "See {IERC721Metadata-name}."
      },
      "owner()": {
        "details": "Returns the address of the current owner."
      },
      "ownerOf(uint256)": {
        "details": "See {IERC721-ownerOf}."
      },
      "renounceOwnership()": {
        "details": "Leaves the contract without owner. It will not be possible to call `onlyOwner` functions anymore. Can only be called by the current owner. NOTE: Renouncing ownership will leave the contract without an owner, thereby removing any functionality that is only available to the owner."
      },
      "safeTransferFrom(address,address,uint256)": {
        "details": "See {IERC721-safeTransferFrom}."
      },
      "safeTransferFrom(address,address,uint256,bytes)": {
        "details": "See {IERC721-safeTransferFrom}."
      },
      "setApprovalForAll(address,bool)": {
        "details": "See {IERC721-setApprovalForAll}."
      },
      "supportsInterface(bytes4)": {
        "details": "See {IERC165-supportsInterface}. Time complexity O(1), guaranteed to always use less than 30 000 gas."
      },
      "symbol()": {
        "details": "See {IERC721Metadata-symbol}."
      },
      "tokenByIndex(uint256)": {
        "details": "See {IERC721Enumerable-tokenByIndex}."
      },
      "tokenOfOwnerByIndex(address,uint256)": {
        "details": "See {IERC721Enumerable-tokenOfOwnerByIndex}."
      },
      "tokenURI(uint256)": {
        "details": "See {IERC721Metadata-tokenURI}."
      },
      "totalSupply()": {
        "details": "See {IERC721Enumerable-totalSupply}."
      },
      "transferFrom(address,address,uint256)": {
        "details": "See {IERC721-transferFrom}."
      },
      "transferOwnership(address)": {
        "details": "Transfers ownership of the contract to a new account (`newOwner`). Can only be called by the current owner."
      }
    },
    "version": 1
  },
  "userdoc": {
    "kind": "user",
    "methods": {},
    "version": 1
  }
}