{
  "contractName": "Sampark",
  "abi": [
    {
      "inputs": [],
      "stateMutability": "nonpayable",
      "type": "constructor"
    },
    {
      "anonymous": false,
      "inputs": [
        {
          "indexed": true,
          "internalType": "address",
          "name": "owner",
          "type": "address"
        },
        {
          "indexed": true,
          "internalType": "address",
          "name": "approved",
          "type": "address"
        },
        {
          "indexed": true,
          "internalType": "uint256",
          "name": "tokenId",
          "type": "uint256"
        }
      ],
      "name": "Approval",
      "type": "event"
    },
    {
      "anonymous": false,
      "inputs": [
        {
          "indexed": true,
          "internalType": "address",
          "name": "owner",
          "type": "address"
        },
        {
          "indexed": true,
          "internalType": "address",
          "name": "operator",
          "type": "address"
        },
        {
          "indexed": false,
          "internalType": "bool",
          "name": "approved",
          "type": "bool"
        }
      ],
      "name": "ApprovalForAll",
      "type": "event"
    },
    {
      "anonymous": false,
      "inputs": [
        {
          "indexed": false,
          "internalType": "uint256",
          "name": "token_id",
          "type": "uint256"
        },
        {
          "indexed": false,
          "internalType": "string",
          "name": "name",
          "type": "string"
        },
        {
          "indexed": false,
          "internalType": "string",
          "name": "skylink",
          "type": "string"
        },
        {
          "indexed": false,
          "internalType": "address",
          "name": "curOwnerAdd",
          "type": "address"
        }
      ],
      "name": "NewArt",
      "type": "event"
    },
    {
      "anonymous": false,
      "inputs": [
        {
          "indexed": true,
          "internalType": "address",
          "name": "previousOwner",
          "type": "address"
        },
        {
          "indexed": true,
          "internalType": "address",
          "name": "newOwner",
          "type": "address"
        }
      ],
      "name": "OwnershipTransferred",
      "type": "event"
    },
    {
      "anonymous": false,
      "inputs": [
        {
          "indexed": true,
          "internalType": "address",
          "name": "from",
          "type": "address"
        },
        {
          "indexed": true,
          "internalType": "address",
          "name": "to",
          "type": "address"
        },
        {
          "indexed": true,
          "internalType": "uint256",
          "name": "tokenId",
          "type": "uint256"
        }
      ],
      "name": "Transfer",
      "type": "event"
    },
    {
      "inputs": [
        {
          "internalType": "uint256",
          "name": "",
          "type": "uint256"
        }
      ],
      "name": "ArtToOwner",
      "outputs": [
        {
          "internalType": "address",
          "name": "",
          "type": "address"
        }
      ],
      "stateMutability": "view",
      "type": "function",
      "constant": true
    },
    {
      "inputs": [
        {
          "internalType": "string",
          "name": "",
          "type": "string"
        }
      ],
      "name": "NeedTokenId",
      "outputs": [
        {
          "internalType": "uint256",
          "name": "",
          "type": "uint256"
        }
      ],
      "stateMutability": "view",
      "type": "function",
      "constant": true
    },
    {
      "inputs": [
        {
          "internalType": "uint256",
          "name": "",
          "type": "uint256"
        }
      ],
      "name": "allartwork",
      "outputs": [
        {
          "internalType": "uint256",
          "name": "token_id",
          "type": "uint256"
        },
        {
          "internalType": "string",
          "name": "name",
          "type": "string"
        },
        {
          "internalType": "string",
          "name": "skylink",
          "type": "string"
        },
        {
          "internalType": "address",
          "name": "curOwnerAdd",
          "type": "address"
        }
      ],
      "stateMutability": "view",
      "type": "function",
      "constant": true
    },
    {
      "inputs": [
        {
          "internalType": "address",
          "name": "to",
          "type": "address"
        },
        {
          "internalType": "uint256",
          "name": "tokenId",
          "type": "uint256"
        }
      ],
      "name": "approve",
      "outputs": [],
      "stateMutability": "nonpayable",
      "type": "function"
    },
    {
      "inputs": [
        {
          "internalType": "address",
          "name": "owner",
          "type": "address"
        }
      ],
      "name": "balanceOf",
      "outputs": [
        {
          "internalType": "uint256",
          "name": "",
          "type": "uint256"
        }
      ],
      "stateMutability": "view",
      "type": "function",
      "constant": true
    },
    {
      "inputs": [],
      "name": "baseURI",
      "outputs": [
        {
          "internalType": "string",
          "name": "",
          "type": "string"
        }
      ],
      "stateMutability": "view",
      "type": "function",
      "constant": true
    },
    {
      "inputs": [
        {
          "internalType": "uint256",
          "name": "tokenId",
          "type": "uint256"
        }
      ],
      "name": "getApproved",
      "outputs": [
        {
          "internalType": "address",
          "name": "",
          "type": "address"
        }
      ],
      "stateMutability": "view",
      "type": "function",
      "constant": true
    },
    {
      "inputs": [
        {
          "internalType": "address",
          "name": "owner",
          "type": "address"
        },
        {
          "internalType": "address",
          "name": "operator",
          "type": "address"
        }
      ],
      "name": "isApprovedForAll",
      "outputs": [
        {
          "internalType": "bool",
          "name": "",
          "type": "bool"
        }
      ],
      "stateMutability": "view",
      "type": "function",
      "constant": true
    },
    {
      "inputs": [],
      "name": "name",
      "outputs": [
        {
          "internalType": "string",
          "name": "",
          "type": "string"
        }
      ],
      "stateMutability": "view",
      "type": "function",
      "constant": true
    },
    {
      "inputs": [],
      "name": "owner",
      "outputs": [
        {
          "internalType": "address",
          "name": "",
          "type": "address"
        }
      ],
      "stateMutability": "view",
      "type": "function",
      "constant": true
    },
    {
      "inputs": [
        {
          "internalType": "uint256",
          "name": "tokenId",
          "type": "uint256"
        }
      ],
      "name": "ownerOf",
      "outputs": [
        {
          "internalType": "address",
          "name": "",
          "type": "address"
        }
      ],
      "stateMutability": "view",
      "type": "function",
      "constant": true
    },
    {
      "inputs": [],
      "name": "renounceOwnership",
      "outputs": [],
      "stateMutability": "nonpayable",
      "type": "function"
    },
    {
      "inputs": [
        {
          "internalType": "address",
          "name": "from",
          "type": "address"
        },
        {
          "internalType": "address",
          "name": "to",
          "type": "address"
        },
        {
          "internalType": "uint256",
          "name": "tokenId",
          "type": "uint256"
        }
      ],
      "name": "safeTransferFrom",
      "outputs": [],
      "stateMutability": "nonpayable",
      "type": "function"
    },
    {
      "inputs": [
        {
          "internalType": "address",
          "name": "from",
          "type": "address"
        },
        {
          "internalType": "address",
          "name": "to",
          "type": "address"
        },
        {
          "internalType": "uint256",
          "name": "tokenId",
          "type": "uint256"
        },
        {
          "internalType": "bytes",
          "name": "_data",
          "type": "bytes"
        }
      ],
      "name": "safeTransferFrom",
      "outputs": [],
      "stateMutability": "nonpayable",
      "type": "function"
    },
    {
      "inputs": [
        {
          "internalType": "address",
          "name": "operator",
          "type": "address"
        },
        {
          "internalType": "bool",
          "name": "approved",
          "type": "bool"
        }
      ],
      "name": "setApprovalForAll",
      "outputs": [],
      "stateMutability": "nonpayable",
      "type": "function"
    },
    {
      "inputs": [
        {
          "internalType": "bytes4",
          "name": "interfaceId",
          "type": "bytes4"
        }
      ],
      "name": "supportsInterface",
      "outputs": [
        {
          "internalType": "bool",
          "name": "",
          "type": "bool"
        }
      ],
      "stateMutability": "view",
      "type": "function",
      "constant": true
    },
    {
      "inputs": [],
      "name": "symbol",
      "outputs": [
        {
          "internalType": "string",
          "name": "",
          "type": "string"
        }
      ],
      "stateMutability": "view",
      "type": "function",
      "constant": true
    },
    {
      "inputs": [
        {
          "internalType": "uint256",
          "name": "index",
          "type": "uint256"
        }
      ],
      "name": "tokenByIndex",
      "outputs": [
        {
          "internalType": "uint256",
          "name": "",
          "type": "uint256"
        }
      ],
      "stateMutability": "view",
      "type": "function",
      "constant": true
    },
    {
      "inputs": [
        {
          "internalType": "address",
          "name": "owner",
          "type": "address"
        },
        {
          "internalType": "uint256",
          "name": "index",
          "type": "uint256"
        }
      ],
      "name": "tokenOfOwnerByIndex",
      "outputs": [
        {
          "internalType": "uint256",
          "name": "",
          "type": "uint256"
        }
      ],
      "stateMutability": "view",
      "type": "function",
      "constant": true
    },
    {
      "inputs": [
        {
          "internalType": "uint256",
          "name": "tokenId",
          "type": "uint256"
        }
      ],
      "name": "tokenURI",
      "outputs": [
        {
          "internalType": "string",
          "name": "",
          "type": "string"
        }
      ],
      "stateMutability": "view",
      "type": "function",
      "constant": true
    },
    {
      "inputs": [],
      "name": "totalSupply",
      "outputs": [
        {
          "internalType": "uint256",
          "name": "",
          "type": "uint256"
        }
      ],
      "stateMutability": "view",
      "type": "function",
      "constant": true
    },
    {
      "inputs": [
        {
          "internalType": "address",
          "name": "from",
          "type": "address"
        },
        {
          "internalType": "address",
          "name": "to",
          "type": "address"
        },
        {
          "internalType": "uint256",
          "name": "tokenId",
          "type": "uint256"
        }
      ],
      "name": "transferFrom",
      "outputs": [],
      "stateMutability": "nonpayable",
      "type": "function"
    },
    {
      "inputs": [
        {
          "internalType": "address",
          "name": "newOwner",
          "type": "address"
        }
      ],
      "name": "transferOwnership",
      "outputs": [],
      "stateMutability": "nonpayable",
      "type": "function"
    },
    {
      "inputs": [
        {
          "internalType": "string",
          "name": "_artwork",
          "type": "string"
        },
        {
          "internalType": "string",
          "name": "Name",
          "type": "string"
        }
      ],
      "name": "CreateArt",
      "outputs": [],
      "stateMutability": "nonpayable",
      "type": "function"
    },
    {
      "inputs": [
        {
          "internalType": "string",
          "name": "skylink",
          "type": "string"
        }
      ],
      "name": "checkOwner",
      "outputs": [
        {
          "internalType": "address",
          "name": "",
          "type": "address"
        }
      ],
      "stateMutability": "view",
      "type": "function",
      "constant": true
    }
  ],
  "bytecode": "0x60806040523480156200001157600080fd5b506040518060400160405280600381526020017f41727400000000000000000000000000000000000000000000000000000000008152506040518060400160405280600381526020017f4152540000000000000000000000000000000000000000000000000000000000815250620000966301ffc9a760e01b620001c960201b60201c565b8160069080519060200190620000ae929190620002da565b508060079080519060200190620000c7929190620002da565b50620000e06380ac58cd60e01b620001c960201b60201c565b620000f8635b5e139f60e01b620001c960201b60201c565b6200011063780e9d6360e01b620001c960201b60201c565b5050600062000124620002d260201b60201c565b905080600a60006101000a81548173ffffffffffffffffffffffffffffffffffffffff021916908373ffffffffffffffffffffffffffffffffffffffff1602179055508073ffffffffffffffffffffffffffffffffffffffff16600073ffffffffffffffffffffffffffffffffffffffff167f8be0079c531659141344cd1fd0a4f28419497f9722a3daafe3b4186f6b6457e060405160405180910390a35062000380565b63ffffffff60e01b817bffffffffffffffffffffffffffffffffffffffffffffffffffffffff1916141562000266576040517f08c379a000000000000000000000000000000000000000000000000000000000815260040180806020018281038252601c8152602001807f4552433136353a20696e76616c696420696e746572666163652069640000000081525060200191505060405180910390fd5b6001600080837bffffffffffffffffffffffffffffffffffffffffffffffffffffffff19167bffffffffffffffffffffffffffffffffffffffffffffffffffffffff1916815260200190815260200160002060006101000a81548160ff02191690831515021790555050565b600033905090565b828054600181600116156101000203166002900490600052602060002090601f016020900481019282601f106200031d57805160ff19168380011785556200034e565b828001600101855582156200034e579182015b828111156200034d57825182559160200191906001019062000330565b5b5090506200035d919062000361565b5090565b5b808211156200037c57600081600090555060010162000362565b5090565b6137fc80620003906000396000f3fe608060405234801561001057600080fd5b50600436106101735760003560e01c806370a08231116100de578063b88d4fde11610097578063e985e9c511610071578063e985e9c514610c00578063ece21a0114610c7a578063f2fde38b14610d49578063f9f3a4ee14610d8d57610173565b8063b88d4fde1461096f578063bdbb119b14610a74578063c87b56dd14610b5957610173565b806370a08231146106cf578063715018a6146107275780638da5cb5b1461073157806395d89b4114610765578063960a555a146107e8578063a22cb4651461091f57610173565b80632ba79adb116101305780632ba79adb146103905780632f745c59146104e257806342842e0e146105445780634f6ccce7146105b25780636352211e146105f45780636c0360eb1461064c57610173565b806301ffc9a71461017857806306fdde03146101db578063081812fc1461025e578063095ea7b3146102b657806318160ddd1461030457806323b872dd14610322575b600080fd5b6101c36004803603602081101561018e57600080fd5b8101908080357bffffffffffffffffffffffffffffffffffffffffffffffffffffffff19169060200190929190505050610de5565b60405180821515815260200191505060405180910390f35b6101e3610e4c565b6040518080602001828103825283818151815260200191508051906020019080838360005b83811015610223578082015181840152602081019050610208565b50505050905090810190601f1680156102505780820380516001836020036101000a031916815260200191505b509250505060405180910390f35b61028a6004803603602081101561027457600080fd5b8101908080359060200190929190505050610eee565b604051808273ffffffffffffffffffffffffffffffffffffffff16815260200191505060405180910390f35b610302600480360360408110156102cc57600080fd5b81019080803573ffffffffffffffffffffffffffffffffffffffff16906020019092919080359060200190929190505050610f89565b005b61030c6110cd565b6040518082815260200191505060405180910390f35b61038e6004803603606081101561033857600080fd5b81019080803573ffffffffffffffffffffffffffffffffffffffff169060200190929190803573ffffffffffffffffffffffffffffffffffffffff169060200190929190803590602001909291905050506110de565b005b6104e0600480360360408110156103a657600080fd5b81019080803590602001906401000000008111156103c357600080fd5b8201836020820111156103d557600080fd5b803590602001918460018302840111640100000000831117156103f757600080fd5b91908080601f016020809104026020016040519081016040528093929190818152602001838380828437600081840152601f19601f8201169050808301925050505050505091929192908035906020019064010000000081111561045a57600080fd5b82018360208201111561046c57600080fd5b8035906020019184600183028401116401000000008311171561048e57600080fd5b91908080601f016020809104026020016040519081016040528093929190818152602001838380828437600081840152601f19601f820116905080830192505050505050509192919290505050611154565b005b61052e600480360360408110156104f857600080fd5b81019080803573ffffffffffffffffffffffffffffffffffffffff1690602001909291908035906020019092919050505061159a565b6040518082815260200191505060405180910390f35b6105b06004803603606081101561055a57600080fd5b81019080803573ffffffffffffffffffffffffffffffffffffffff169060200190929190803573ffffffffffffffffffffffffffffffffffffffff169060200190929190803590602001909291905050506115f5565b005b6105de600480360360208110156105c857600080fd5b8101908080359060200190929190505050611615565b6040518082815260200191505060405180910390f35b6106206004803603602081101561060a57600080fd5b8101908080359060200190929190505050611638565b604051808273ffffffffffffffffffffffffffffffffffffffff16815260200191505060405180910390f35b61065461166f565b6040518080602001828103825283818151815260200191508051906020019080838360005b83811015610694578082015181840152602081019050610679565b50505050905090810190601f1680156106c15780820380516001836020036101000a031916815260200191505b509250505060405180910390f35b610711600480360360208110156106e557600080fd5b81019080803573ffffffffffffffffffffffffffffffffffffffff169060200190929190505050611711565b6040518082815260200191505060405180910390f35b61072f6117e6565b005b610739611971565b604051808273ffffffffffffffffffffffffffffffffffffffff16815260200191505060405180910390f35b61076d61199b565b6040518080602001828103825283818151815260200191508051906020019080838360005b838110156107ad578082015181840152602081019050610792565b50505050905090810190601f1680156107da5780820380516001836020036101000a031916815260200191505b509250505060405180910390f35b610814600480360360208110156107fe57600080fd5b8101908080359060200190929190505050611a3d565b6040518085815260200180602001806020018473ffffffffffffffffffffffffffffffffffffffff168152602001838103835286818151815260200191508051906020019080838360005b8381101561087a57808201518184015260208101905061085f565b50505050905090810190601f1680156108a75780820380516001836020036101000a031916815260200191505b50838103825285818151815260200191508051906020019080838360005b838110156108e05780820151818401526020810190506108c5565b50505050905090810190601f16801561090d5780820380516001836020036101000a031916815260200191505b50965050505050505060405180910390f35b61096d6004803603604081101561093557600080fd5b81019080803573ffffffffffffffffffffffffffffffffffffffff169060200190929190803515159060200190929190505050611bca565b005b610a726004803603608081101561098557600080fd5b81019080803573ffffffffffffffffffffffffffffffffffffffff169060200190929190803573ffffffffffffffffffffffffffffffffffffffff16906020019092919080359060200190929190803590602001906401000000008111156109ec57600080fd5b8201836020820111156109fe57600080fd5b80359060200191846001830284011164010000000083111715610a2057600080fd5b91908080601f016020809104026020016040519081016040528093929190818152602001838380828437600081840152601f19601f820116905080830192505050505050509192919290505050611d80565b005b610b2d60048036036020811015610a8a57600080fd5b8101908080359060200190640100000000811115610aa757600080fd5b820183602082011115610ab957600080fd5b80359060200191846001830284011164010000000083111715610adb57600080fd5b91908080601f016020809104026020016040519081016040528093929190818152602001838380828437600081840152601f19601f820116905080830192505050505050509192919290505050611df8565b604051808273ffffffffffffffffffffffffffffffffffffffff16815260200191505060405180910390f35b610b8560048036036020811015610b6f57600080fd5b8101908080359060200190929190505050611f11565b6040518080602001828103825283818151815260200191508051906020019080838360005b83811015610bc5578082015181840152602081019050610baa565b50505050905090810190601f168015610bf25780820380516001836020036101000a031916815260200191505b509250505060405180910390f35b610c6260048036036040811015610c1657600080fd5b81019080803573ffffffffffffffffffffffffffffffffffffffff169060200190929190803573ffffffffffffffffffffffffffffffffffffffff1690602001909291905050506121fa565b60405180821515815260200191505060405180910390f35b610d3360048036036020811015610c9057600080fd5b8101908080359060200190640100000000811115610cad57600080fd5b820183602082011115610cbf57600080fd5b80359060200191846001830284011164010000000083111715610ce157600080fd5b91908080601f016020809104026020016040519081016040528093929190818152602001838380828437600081840152601f19601f82011690508083019250505050505050919291929050505061228e565b6040518082815260200191505060405180910390f35b610d8b60048036036020811015610d5f57600080fd5b81019080803573ffffffffffffffffffffffffffffffffffffffff1690602001909291905050506122bc565b005b610db960048036036020811015610da357600080fd5b81019080803590602001909291905050506124cc565b604051808273ffffffffffffffffffffffffffffffffffffffff16815260200191505060405180910390f35b6000806000837bffffffffffffffffffffffffffffffffffffffffffffffffffffffff19167bffffffffffffffffffffffffffffffffffffffffffffffffffffffff1916815260200190815260200160002060009054906101000a900460ff169050919050565b606060068054600181600116156101000203166002900480601f016020809104026020016040519081016040528092919081815260200182805460018160011615610100020316600290048015610ee45780601f10610eb957610100808354040283529160200191610ee4565b820191906000526020600020905b815481529060010190602001808311610ec757829003601f168201915b5050505050905090565b6000610ef9826124ff565b610f4e576040517f08c379a000000000000000000000000000000000000000000000000000000000815260040180806020018281038252602c8152602001806136f1602c913960400191505060405180910390fd5b6004600083815260200190815260200160002060009054906101000a900473ffffffffffffffffffffffffffffffffffffffff169050919050565b6000610f9482611638565b90508073ffffffffffffffffffffffffffffffffffffffff168373ffffffffffffffffffffffffffffffffffffffff16141561101b576040517f08c379a00000000000000000000000000000000000000000000000000000000081526004018080602001828103825260218152602001806137756021913960400191505060405180910390fd5b8073ffffffffffffffffffffffffffffffffffffffff1661103a61251c565b73ffffffffffffffffffffffffffffffffffffffff16148061106957506110688161106361251c565b6121fa565b5b6110be576040517f08c379a00000000000000000000000000000000000000000000000000000000081526004018080602001828103825260388152602001806136446038913960400191505060405180910390fd5b6110c88383612524565b505050565b60006110d960026125dd565b905090565b6110ef6110e961251c565b826125f2565b611144576040517f08c379a00000000000000000000000000000000000000000000000000000000081526004018080602001828103825260318152602001806137966031913960400191505060405180910390fd5b61114f8383836126e6565b505050565b600c826040518082805190602001908083835b6020831061118a5780518252602082019150602081019050602083039250611167565b6001836020036101000a038019825116818451168082178552505050505050905001915050908152602001604051809103902060009054906101000a900460ff16156111d557600080fd5b60008251116111e357600080fd5b60008151116111f157600080fd5b600073ffffffffffffffffffffffffffffffffffffffff163373ffffffffffffffffffffffffffffffffffffffff16141561122b57600080fd5b6000600b805490509050600b60405180608001604052808381526020018481526020018581526020013373ffffffffffffffffffffffffffffffffffffffff1681525090806001815401808255809150506001900390600052602060002090600402016000909190919091506000820151816000015560208201518160010190805190602001906112bd9291906134dc565b5060408201518160020190805190602001906112da9291906134dc565b5060608201518160030160006101000a81548173ffffffffffffffffffffffffffffffffffffffff021916908373ffffffffffffffffffffffffffffffffffffffff160217905550505033600d600083815260200190815260200160002060006101000a81548173ffffffffffffffffffffffffffffffffffffffff021916908373ffffffffffffffffffffffffffffffffffffffff16021790555080600e846040518082805190602001908083835b602083106113ad578051825260208201915060208101905060208303925061138a565b6001836020036101000a0380198251168184511680821785525050505050509050019150509081526020016040518091039020819055507fcb8b1d35c477286b45556555a9fc4b7be7fcd0a27e7c51361db61cce57750531818385336040518085815260200180602001806020018473ffffffffffffffffffffffffffffffffffffffff168152602001838103835286818151815260200191508051906020019080838360005b8381101561146f578082015181840152602081019050611454565b50505050905090810190601f16801561149c5780820380516001836020036101000a031916815260200191505b50838103825285818151815260200191508051906020019080838360005b838110156114d55780820151818401526020810190506114ba565b50505050905090810190601f1680156115025780820380516001836020036101000a031916815260200191505b50965050505050505060405180910390a16001600c846040518082805190602001908083835b6020831061154b5780518252602082019150602081019050602083039250611528565b6001836020036101000a038019825116818451168082178552505050505050905001915050908152602001604051809103902060006101000a81548160ff021916908315150217905550505050565b60006115ed82600160008673ffffffffffffffffffffffffffffffffffffffff1673ffffffffffffffffffffffffffffffffffffffff16815260200190815260200160002061292990919063ffffffff16565b905092915050565b61161083838360405180602001604052806000815250611d80565b505050565b60008061162c83600261294390919063ffffffff16565b50905080915050919050565b6000611668826040518060600160405280602981526020016136a660299139600261296f9092919063ffffffff16565b9050919050565b606060098054600181600116156101000203166002900480601f0160208091040260200160405190810160405280929190818152602001828054600181600116156101000203166002900480156117075780601f106116dc57610100808354040283529160200191611707565b820191906000526020600020905b8154815290600101906020018083116116ea57829003601f168201915b5050505050905090565b60008073ffffffffffffffffffffffffffffffffffffffff168273ffffffffffffffffffffffffffffffffffffffff161415611798576040517f08c379a000000000000000000000000000000000000000000000000000000000815260040180806020018281038252602a81526020018061367c602a913960400191505060405180910390fd5b6117df600160008473ffffffffffffffffffffffffffffffffffffffff1673ffffffffffffffffffffffffffffffffffffffff16815260200190815260200160002061298e565b9050919050565b6117ee61251c565b73ffffffffffffffffffffffffffffffffffffffff16600a60009054906101000a900473ffffffffffffffffffffffffffffffffffffffff1673ffffffffffffffffffffffffffffffffffffffff16146118b0576040517f08c379a00000000000000000000000000000000000000000000000000000000081526004018080602001828103825260208152602001807f4f776e61626c653a2063616c6c6572206973206e6f7420746865206f776e657281525060200191505060405180910390fd5b600073ffffffffffffffffffffffffffffffffffffffff16600a60009054906101000a900473ffffffffffffffffffffffffffffffffffffffff1673ffffffffffffffffffffffffffffffffffffffff167f8be0079c531659141344cd1fd0a4f28419497f9722a3daafe3b4186f6b6457e060405160405180910390a36000600a60006101000a81548173ffffffffffffffffffffffffffffffffffffffff021916908373ffffffffffffffffffffffffffffffffffffffff160217905550565b6000600a60009054906101000a900473ffffffffffffffffffffffffffffffffffffffff16905090565b606060078054600181600116156101000203166002900480601f016020809104026020016040519081016040528092919081815260200182805460018160011615610100020316600290048015611a335780601f10611a0857610100808354040283529160200191611a33565b820191906000526020600020905b815481529060010190602001808311611a1657829003601f168201915b5050505050905090565b600b8181548110611a4a57fe5b9060005260206000209060040201600091509050806000015490806001018054600181600116156101000203166002900480601f016020809104026020016040519081016040528092919081815260200182805460018160011615610100020316600290048015611afc5780601f10611ad157610100808354040283529160200191611afc565b820191906000526020600020905b815481529060010190602001808311611adf57829003601f168201915b505050505090806002018054600181600116156101000203166002900480601f016020809104026020016040519081016040528092919081815260200182805460018160011615610100020316600290048015611b9a5780601f10611b6f57610100808354040283529160200191611b9a565b820191906000526020600020905b815481529060010190602001808311611b7d57829003601f168201915b5050505050908060030160009054906101000a900473ffffffffffffffffffffffffffffffffffffffff16905084565b611bd261251c565b73ffffffffffffffffffffffffffffffffffffffff168273ffffffffffffffffffffffffffffffffffffffff161415611c73576040517f08c379a00000000000000000000000000000000000000000000000000000000081526004018080602001828103825260198152602001807f4552433732313a20617070726f766520746f2063616c6c65720000000000000081525060200191505060405180910390fd5b8060056000611c8061251c565b73ffffffffffffffffffffffffffffffffffffffff1673ffffffffffffffffffffffffffffffffffffffff16815260200190815260200160002060008473ffffffffffffffffffffffffffffffffffffffff1673ffffffffffffffffffffffffffffffffffffffff16815260200190815260200160002060006101000a81548160ff0219169083151502179055508173ffffffffffffffffffffffffffffffffffffffff16611d2d61251c565b73ffffffffffffffffffffffffffffffffffffffff167f17307eab39ab6107e8899845ad3d59bd9653f200f220920489ca2b5937696c318360405180821515815260200191505060405180910390a35050565b611d91611d8b61251c565b836125f2565b611de6576040517f08c379a00000000000000000000000000000000000000000000000000000000081526004018080602001828103825260318152602001806137966031913960400191505060405180910390fd5b611df2848484846129a3565b50505050565b6000611e6c600e836040518082805190602001908083835b60208310611e335780518252602082019150602081019050602083039250611e10565b6001836020036101000a038019825116818451168082178552505050505050905001915050908152602001604051809103902054611638565b50600d6000600e846040518082805190602001908083835b60208310611ea75780518252602082019150602081019050602083039250611e84565b6001836020036101000a038019825116818451168082178552505050505050905001915050908152602001604051809103902054815260200190815260200160002060009054906101000a900473ffffffffffffffffffffffffffffffffffffffff169050919050565b6060611f1c826124ff565b611f71576040517f08c379a000000000000000000000000000000000000000000000000000000000815260040180806020018281038252602f815260200180613746602f913960400191505060405180910390fd5b6060600860008481526020019081526020016000208054600181600116156101000203166002900480601f01602080910402602001604051908101604052809291908181526020018280546001816001161561010002031660029004801561201a5780601f10611fef5761010080835404028352916020019161201a565b820191906000526020600020905b815481529060010190602001808311611ffd57829003601f168201915b5050505050905060006009805460018160011615610100020316600290049050141561204957809150506121f5565b6000815111156121225760098160405160200180838054600181600116156101000203166002900480156120b45780601f106120925761010080835404028352918201916120b4565b820191906000526020600020905b8154815290600101906020018083116120a0575b505082805190602001908083835b602083106120e557805182526020820191506020810190506020830392506120c2565b6001836020036101000a038019825116818451168082178552505050505050905001925050506040516020818303038152906040529150506121f5565b600961212d84612a15565b604051602001808380546001816001161561010002031660029004801561218b5780601f1061216957610100808354040283529182019161218b565b820191906000526020600020905b815481529060010190602001808311612177575b505082805190602001908083835b602083106121bc5780518252602082019150602081019050602083039250612199565b6001836020036101000a038019825116818451168082178552505050505050905001925050506040516020818303038152906040529150505b919050565b6000600560008473ffffffffffffffffffffffffffffffffffffffff1673ffffffffffffffffffffffffffffffffffffffff16815260200190815260200160002060008373ffffffffffffffffffffffffffffffffffffffff1673ffffffffffffffffffffffffffffffffffffffff16815260200190815260200160002060009054906101000a900460ff16905092915050565b600e818051602081018201805184825260208301602085012081835280955050505050506000915090505481565b6122c461251c565b73ffffffffffffffffffffffffffffffffffffffff16600a60009054906101000a900473ffffffffffffffffffffffffffffffffffffffff1673ffffffffffffffffffffffffffffffffffffffff1614612386576040517f08c379a00000000000000000000000000000000000000000000000000000000081526004018080602001828103825260208152602001807f4f776e61626c653a2063616c6c6572206973206e6f7420746865206f776e657281525060200191505060405180910390fd5b600073ffffffffffffffffffffffffffffffffffffffff168173ffffffffffffffffffffffffffffffffffffffff16141561240c576040517f08c379a00000000000000000000000000000000000000000000000000000000081526004018080602001828103825260268152602001806135ce6026913960400191505060405180910390fd5b8073ffffffffffffffffffffffffffffffffffffffff16600a60009054906101000a900473ffffffffffffffffffffffffffffffffffffffff1673ffffffffffffffffffffffffffffffffffffffff167f8be0079c531659141344cd1fd0a4f28419497f9722a3daafe3b4186f6b6457e060405160405180910390a380600a60006101000a81548173ffffffffffffffffffffffffffffffffffffffff021916908373ffffffffffffffffffffffffffffffffffffffff16021790555050565b600d6020528060005260406000206000915054906101000a900473ffffffffffffffffffffffffffffffffffffffff1681565b6000612515826002612b5c90919063ffffffff16565b9050919050565b600033905090565b816004600083815260200190815260200160002060006101000a81548173ffffffffffffffffffffffffffffffffffffffff021916908373ffffffffffffffffffffffffffffffffffffffff160217905550808273ffffffffffffffffffffffffffffffffffffffff1661259783611638565b73ffffffffffffffffffffffffffffffffffffffff167f8c5be1e5ebec7d5bd14f71427d1e84f3dd0314c0f7b2291e5b200ac8c7c3b92560405160405180910390a45050565b60006125eb82600001612b76565b9050919050565b60006125fd826124ff565b612652576040517f08c379a000000000000000000000000000000000000000000000000000000000815260040180806020018281038252602c815260200180613618602c913960400191505060405180910390fd5b600061265d83611638565b90508073ffffffffffffffffffffffffffffffffffffffff168473ffffffffffffffffffffffffffffffffffffffff1614806126cc57508373ffffffffffffffffffffffffffffffffffffffff166126b484610eee565b73ffffffffffffffffffffffffffffffffffffffff16145b806126dd57506126dc81856121fa565b5b91505092915050565b8273ffffffffffffffffffffffffffffffffffffffff1661270682611638565b73ffffffffffffffffffffffffffffffffffffffff1614612772576040517f08c379a000000000000000000000000000000000000000000000000000000000815260040180806020018281038252602981526020018061371d6029913960400191505060405180910390fd5b600073ffffffffffffffffffffffffffffffffffffffff168273ffffffffffffffffffffffffffffffffffffffff1614156127f8576040517f08c379a00000000000000000000000000000000000000000000000000000000081526004018080602001828103825260248152602001806135f46024913960400191505060405180910390fd5b612803838383612b87565b61280e600082612524565b61285f81600160008673ffffffffffffffffffffffffffffffffffffffff1673ffffffffffffffffffffffffffffffffffffffff168152602001908152602001600020612b8c90919063ffffffff16565b506128b181600160008573ffffffffffffffffffffffffffffffffffffffff1673ffffffffffffffffffffffffffffffffffffffff168152602001908152602001600020612ba690919063ffffffff16565b506128c881836002612bc09092919063ffffffff16565b50808273ffffffffffffffffffffffffffffffffffffffff168473ffffffffffffffffffffffffffffffffffffffff167fddf252ad1be2c89b69c2b068fc378daa952ba7f163c4a11628f55a4df523b3ef60405160405180910390a4505050565b60006129388360000183612bf5565b60001c905092915050565b6000806000806129568660000186612c78565b915091508160001c8160001c9350935050509250929050565b6000612982846000018460001b84612d11565b60001c90509392505050565b600061299c82600001612e07565b9050919050565b6129ae8484846126e6565b6129ba84848484612e18565b612a0f576040517f08c379a000000000000000000000000000000000000000000000000000000000815260040180806020018281038252603281526020018061359c6032913960400191505060405180910390fd5b50505050565b60606000821415612a5d576040518060400160405280600181526020017f30000000000000000000000000000000000000000000000000000000000000008152509050612b57565b600082905060005b60008214612a87578080600101915050600a8281612a7f57fe5b049150612a65565b60608167ffffffffffffffff81118015612aa057600080fd5b506040519080825280601f01601f191660200182016040528015612ad35781602001600182028036833780820191505090505b50905060006001830390508593505b60008414612b4f57600a8481612af457fe5b0660300160f81b82828060019003935081518110612b0e57fe5b60200101907effffffffffffffffffffffffffffffffffffffffffffffffffffffffffffff1916908160001a905350600a8481612b4757fe5b049350612ae2565b819450505050505b919050565b6000612b6e836000018360001b613031565b905092915050565b600081600001805490509050919050565b505050565b6000612b9e836000018360001b613054565b905092915050565b6000612bb8836000018360001b61313c565b905092915050565b6000612bec846000018460001b8473ffffffffffffffffffffffffffffffffffffffff1660001b6131ac565b90509392505050565b600081836000018054905011612c56576040517f08c379a000000000000000000000000000000000000000000000000000000000815260040180806020018281038252602281526020018061357a6022913960400191505060405180910390fd5b826000018281548110612c6557fe5b9060005260206000200154905092915050565b60008082846000018054905011612cda576040517f08c379a00000000000000000000000000000000000000000000000000000000081526004018080602001828103825260228152602001806136cf6022913960400191505060405180910390fd5b6000846000018481548110612ceb57fe5b906000526020600020906002020190508060000154816001015492509250509250929050565b60008084600101600085815260200190815260200160002054905060008114158390612dd8576040517f08c379a00000000000000000000000000000000000000000000000000000000081526004018080602001828103825283818151815260200191508051906020019080838360005b83811015612d9d578082015181840152602081019050612d82565b50505050905090810190601f168015612dca5780820380516001836020036101000a031916815260200191505b509250505060405180910390fd5b50846000016001820381548110612deb57fe5b9060005260206000209060020201600101549150509392505050565b600081600001805490509050919050565b6000612e398473ffffffffffffffffffffffffffffffffffffffff16613288565b612e465760019050613029565b6060612fb063150b7a0260e01b612e5b61251c565b888787604051602401808573ffffffffffffffffffffffffffffffffffffffff1681526020018473ffffffffffffffffffffffffffffffffffffffff16815260200183815260200180602001828103825283818151815260200191508051906020019080838360005b83811015612edf578082015181840152602081019050612ec4565b50505050905090810190601f168015612f0c5780820380516001836020036101000a031916815260200191505b5095505050505050604051602081830303815290604052907bffffffffffffffffffffffffffffffffffffffffffffffffffffffff19166020820180517bffffffffffffffffffffffffffffffffffffffffffffffffffffffff838183161783525050505060405180606001604052806032815260200161359c603291398773ffffffffffffffffffffffffffffffffffffffff1661329b9092919063ffffffff16565b90506000818060200190516020811015612fc957600080fd5b8101908080519060200190929190505050905063150b7a0260e01b7bffffffffffffffffffffffffffffffffffffffffffffffffffffffff1916817bffffffffffffffffffffffffffffffffffffffffffffffffffffffff191614925050505b949350505050565b600080836001016000848152602001908152602001600020541415905092915050565b60008083600101600084815260200190815260200160002054905060008114613130576000600182039050600060018660000180549050039050600086600001828154811061309f57fe5b90600052602060002001549050808760000184815481106130bc57fe5b90600052602060002001819055506001830187600101600083815260200190815260200160002081905550866000018054806130f457fe5b60019003818190600052602060002001600090559055866001016000878152602001908152602001600020600090556001945050505050613136565b60009150505b92915050565b600061314883836132b3565b6131a15782600001829080600181540180825580915050600190039060005260206000200160009091909190915055826000018054905083600101600084815260200190815260200160002081905550600190506131a6565b600090505b92915050565b600080846001016000858152602001908152602001600020549050600081141561325357846000016040518060400160405280868152602001858152509080600181540180825580915050600190039060005260206000209060020201600090919091909150600082015181600001556020820151816001015550508460000180549050856001016000868152602001908152602001600020819055506001915050613281565b8285600001600183038154811061326657fe5b90600052602060002090600202016001018190555060009150505b9392505050565b600080823b905060008111915050919050565b60606132aa84846000856132d6565b90509392505050565b600080836001016000848152602001908152602001600020541415905092915050565b60606132e185613288565b613353576040517f08c379a000000000000000000000000000000000000000000000000000000000815260040180806020018281038252601d8152602001807f416464726573733a2063616c6c20746f206e6f6e2d636f6e747261637400000081525060200191505060405180910390fd5b600060608673ffffffffffffffffffffffffffffffffffffffff1685876040518082805190602001908083835b602083106133a35780518252602082019150602081019050602083039250613380565b6001836020036101000a03801982511681845116808217855250505050505090500191505060006040518083038185875af1925050503d8060008114613405576040519150601f19603f3d011682016040523d82523d6000602084013e61340a565b606091505b5091509150811561341f5780925050506134d4565b6000815111156134325780518082602001fd5b836040517f08c379a00000000000000000000000000000000000000000000000000000000081526004018080602001828103825283818151815260200191508051906020019080838360005b8381101561349957808201518184015260208101905061347e565b50505050905090810190601f1680156134c65780820380516001836020036101000a031916815260200191505b509250505060405180910390fd5b949350505050565b828054600181600116156101000203166002900490600052602060002090601f016020900481019282601f1061351d57805160ff191683800117855561354b565b8280016001018555821561354b579182015b8281111561354a57825182559160200191906001019061352f565b5b509050613558919061355c565b5090565b5b8082111561357557600081600090555060010161355d565b509056fe456e756d657261626c655365743a20696e646578206f7574206f6620626f756e64734552433732313a207472616e7366657220746f206e6f6e20455243373231526563656976657220696d706c656d656e7465724f776e61626c653a206e6577206f776e657220697320746865207a65726f20616464726573734552433732313a207472616e7366657220746f20746865207a65726f20616464726573734552433732313a206f70657261746f7220717565727920666f72206e6f6e6578697374656e7420746f6b656e4552433732313a20617070726f76652063616c6c6572206973206e6f74206f776e6572206e6f7220617070726f76656420666f7220616c6c4552433732313a2062616c616e636520717565727920666f7220746865207a65726f20616464726573734552433732313a206f776e657220717565727920666f72206e6f6e6578697374656e7420746f6b656e456e756d657261626c654d61703a20696e646578206f7574206f6620626f756e64734552433732313a20617070726f76656420717565727920666f72206e6f6e6578697374656e7420746f6b656e4552433732313a207472616e73666572206f6620746f6b656e2074686174206973206e6f74206f776e4552433732314d657461646174613a2055524920717565727920666f72206e6f6e6578697374656e7420746f6b656e4552433732313a20617070726f76616c20746f2063757272656e74206f776e65724552433732313a207472616e736665722063616c6c6572206973206e6f74206f776e6572206e6f7220617070726f766564a2646970667358221220628336443d848585e8a0b7be0d4a3c913b08afb5c4bc7a560a6596d92d8005bb64736f6c634300060c0033",
  "immutableReferences": {},
  "source": "pragma solidity >=0.4.25 <6.2.0;\n\nimport \"./openzeppelin-solidity/contracts/math/SafeMath.sol\";\nimport './openzeppelin-solidity/contracts/token/ERC721/ERC721.sol';\nimport \"./openzeppelin-solidity/contracts/access/Ownable.sol\";\n\n\ncontract Sampark is ERC721 , Ownable {\n\n\n    using SafeMath for uint256;\n    using SafeMath for uint32;\n    using SafeMath for uint16;\n\n\n    event NewArt( uint256 token_id, string name , string skylink , address curOwnerAdd);\n\n    // Global Variable now\n\n    // uint256 token_id;\n    // string skylink;\n    // string[] public art_work;\n    // address ;\n\n    struct Art {\n        uint256 token_id;\n        string name;\n        string skylink;\n        address curOwnerAdd;\n    }\n\n    Art[] public  allartwork;\n\n    mapping (string => bool) _artwork_exist;\n    mapping (uint256 => address) public ArtToOwner;\n    mapping (string => uint256) public NeedTokenId;\n    // Constructor\n\n    constructor() ERC721(\"Art\",\"ART\") public {\n\n    }\n    // mint function to create new tokens\n\n      function CreateArt(string memory _artwork, string memory Name) public {\n// returns(uint256 _token_id, string memory _name,string memory _skylink, address _curOwnerAdd)\n      require(!_artwork_exist[_artwork]);\n      require(bytes(_artwork).length > 0);\n      require(bytes(Name).length > 0);\n      require(msg.sender!=address(0));\n\n      uint256 id = allartwork.length;\n      allartwork.push(Art(id,Name, _artwork, msg.sender));\n\n      ArtToOwner[id] = msg.sender;\n      NeedTokenId[_artwork] = id;\n      emit NewArt(id, Name ,_artwork,  msg.sender );\n      // uint256 _id = art_work.push(_artwork);\n       // uint _id = allartwork.push(Art(Name, msg.sender , _artwork));\n\n\n      // allartwork.push(Art(Name, msg.sender , _artwork));\n\n      // _mint(msg.sender, _artwork);\n      _artwork_exist[_artwork] = true;\n\n      // Art memory art = Art({\n      //       token_id: art_work.push(_artwork),\n      //       name: Name,\n      //       curOwnerAdd: msg.sender,\n      //       skylink: _artwork\n      //   });\n      //\n      //   allartwork.push(art);\n\n      // return (art.token_id ,art.name , art.skylink, art.curOwnerAdd);\n\n    }\n\n    // function buy(address _from ,address _to,uint256 _token_id) public returns(bool){\n    //\n    //    safeTransferFrom(_from,  _to,  _token_id);\n    //\n    //   // ArtToOwner[_token_id] = _to;\n    //\n    //   return true;\n    // }\n    //\n    // function checkOwner(string memory _token_id) public returns(address){\n    //\n    //   return ArtToOwner[_token_id];\n    // }\n\n\n    function buy(address from , address to, string memory skylink) private {\n\n\n      _transfer( from,  to,  NeedTokenId[skylink]);\n      ArtToOwner[NeedTokenId[skylink]] = to;\n\n    }\n\n    function checkOwner(string memory skylink) public view  returns (address) {\n\n      ownerOf(NeedTokenId[skylink]);\n      return ArtToOwner[NeedTokenId[skylink]];\n    }\n\n    // function _transfer(address _from, address _to, uint256 _token_id) private override {\n    //\n    //   ArtToOwner[_token_id] = _to;\n    //   emit Transfer(_from, _to, _token_id);\n    // }\n\n  }\n",
  "sourcePath": "/home/escavalier/Documents/Cosmos/HackAtom-V/sampark/src/contracts/sampark.sol",
  "compiler": {
    "name": "solc",
    "version": "0.6.12+commit.27d51765.Emscripten.clang"
  },
  "schemaVersion": "3.3.1",
  "updatedAt": "2020-10-29T11:14:26.411Z",
  "networkType": "ethereum",
  "devdoc": {
    "kind": "dev",
    "methods": {
      "approve(address,uint256)": {
        "details": "See {IERC721-approve}."
      },
      "balanceOf(address)": {
        "details": "See {IERC721-balanceOf}."
      },
      "baseURI()": {
        "details": "Returns the base URI set via {_setBaseURI}. This will be automatically added as a prefix in {tokenURI} to each token's URI, or to the token ID if no specific URI is set for that token ID."
      },
      "getApproved(uint256)": {
        "details": "See {IERC721-getApproved}."
      },
      "isApprovedForAll(address,address)": {
        "details": "See {IERC721-isApprovedForAll}."
      },
      "name()": {
        "details": "See {IERC721Metadata-name}."
      },
      "owner()": {
        "details": "Returns the address of the current owner."
      },
      "ownerOf(uint256)": {
        "details": "See {IERC721-ownerOf}."
      },
      "renounceOwnership()": {
        "details": "Leaves the contract without owner. It will not be possible to call `onlyOwner` functions anymore. Can only be called by the current owner. NOTE: Renouncing ownership will leave the contract without an owner, thereby removing any functionality that is only available to the owner."
      },
      "safeTransferFrom(address,address,uint256)": {
        "details": "See {IERC721-safeTransferFrom}."
      },
      "safeTransferFrom(address,address,uint256,bytes)": {
        "details": "See {IERC721-safeTransferFrom}."
      },
      "setApprovalForAll(address,bool)": {
        "details": "See {IERC721-setApprovalForAll}."
      },
      "supportsInterface(bytes4)": {
        "details": "See {IERC165-supportsInterface}. Time complexity O(1), guaranteed to always use less than 30 000 gas."
      },
      "symbol()": {
        "details": "See {IERC721Metadata-symbol}."
      },
      "tokenByIndex(uint256)": {
        "details": "See {IERC721Enumerable-tokenByIndex}."
      },
      "tokenOfOwnerByIndex(address,uint256)": {
        "details": "See {IERC721Enumerable-tokenOfOwnerByIndex}."
      },
      "tokenURI(uint256)": {
        "details": "See {IERC721Metadata-tokenURI}."
      },
      "totalSupply()": {
        "details": "See {IERC721Enumerable-totalSupply}."
      },
      "transferFrom(address,address,uint256)": {
        "details": "See {IERC721-transferFrom}."
      },
      "transferOwnership(address)": {
        "details": "Transfers ownership of the contract to a new account (`newOwner`). Can only be called by the current owner."
      }
    },
    "version": 1
  },
  "userdoc": {
    "kind": "user",
    "methods": {},
    "version": 1
  }
}